:020000040804EE
:1000000070490120615E0508C1050408C3050408A4
:10001000CD050408D1050408D5050408000000003A
:10002000000000000000000000000000D9050408E6
:10003000DB05040800000000775E0508E7030408FC
:100040007B5E05087B5E05087B5E05087B5E050818
:100050007B5E05087B5E05087B5E05087B5E050808
:100060007B5E05087B5E05087B5E05087B5E0508F8
:100070007B5E05087B5E05087B5E05087B5E0508E8
:100080007B5E05087B5E05087B5E05087B5E0508D8
:100090007B5E05087B5E05087B5E05087B5E0508C8
:1000A0007B5E05087B5E05087B5E05087B5E0508B8
:1000B0007B5E05087B5E05087B5E05087B5E0508A8
:1000C0007B5E05087B5E05087B5E05087B5E050898
:1000D0007B5E05088F0C0408D50C0408BD0D0408D0
:1000E000792005087B5E05087B5E05087B5E0508B8
:1000F0007B5E05087B5E05087B5E05087B5E050868
:100100007B5E05087B5E05087B5E05087B5E050857
:10011000350F0408D10F04087B5E0508533105082C
:100120007B5E05087B5E05087B5E05087B5E050837
:100130007B5E05087B5E05087B5E05087B5E050827
:100140007B5E05087B5E05087B5E0508B5B6050885
:100150007B5E05087B5E05087B5E05087B5E050807
:100160007B5E05087B5E05087B5E05087B5E0508F7
:100170007B5E05087B5E05087B5E05087B5E0508E7
:100180007B5E05087B5E0508DFF80CD03DF02CF99E
:1001900000480047E50104087049012010B511F03E
:1001A000E5FF1FF0BEFB0EF07BFC00F065FC04F0E9
:1001B0007BFA09F02CFD03F03FF80EF0EEF809F0A1
:1001C0009DFF11F02FFC04F0D2F801F013F93CF080
:1001D00039F80FF0F0FF12F0B5FA12F029FD15F022
:1001E00024FB10BD05480649086015F0E5FE00F047
:1001F00051F800BFFFF7D2FFFCE700000000040841
:1002000008ED00E010B5044645F2555015F004FB2A
:10021000032015F004FB022C00D2022440F6CC404F
:10022000844200D9044640F2E24060434FF47A71C0
:10023000B0FBF1F0441EA0B215F0F4FA15F0F5FA97
:1002400010BD70B59249481EB0F1807F01D30120E6
:100250001BE0481E4FF0E022506150170F2200288B
:1002600007DA13071D0E8B4B00F00F04241F1D55DA
:1002700003E013071C0E884B1C5400BF00204FF0F6
:10028000E022906107201061002010B183A03DF0B2
:100290007DFB70BD1FB5684614F00FFB4FF4A060E6
:1002A00012F0CCFFFFF7CDFF00F072FB0EF0F4FC74
:1002B00011F06BFE00F0DAFF62B67EA03DF066FB47
:1002C00080480368001F0268001F01687EA03DF09F
:1002D0005DFB7C480A30018889A03DF057FB8FA068
:1002E00000993DF053FB93A001993DF04FFB97A07F
:1002F00002993DF04BFB9BA003993DF047FB40F278
:100300003A519EA03DF042FB40F63471A2A03DF070
:100310003DFB40F6B830FFF775FF0EF0ECFB04F044
:100320003AFC0EF0B9FC10F0C7FF64200EF0CEFCD2
:1003300001F074FF03F0BFF91FF0ABFE05F08EFA79
:1003400007F0DBFC09F0CBFD11F069FA0DF0AEFD12
:100350000FF0A2FF04F000F911F049FF0EF055FC78
:1003600012F0FBFA12F0E0FE1FBD10B59148408973
:1003700020B190484089401E8E4948818D480089AF
:10038000401C8C49088100F005FC03F045FA1FF081
:100390003FFB09F06CFE11F00AFB0DF08CFD04F040
:1003A00084F904F041FC07F0B6FC0EF08EFB0EF071
:1003B000DAFB10F078FF11F052FD12F073FB12F02F
:1003C000BFFE10BD10B51FF0FBFD10F0E2F81FF0EE
:1003D000C1FB10BD00207749087048704860488113
:1003E00070477448704710B5FFF7BFFF10BD1CB5CC
:1003F0000121022014F032FB0121022014F02EFB17
:1004000002208DF8050001208DF8040000208DF8F1
:10041000060001208DF8070002200090694666481A
:1004200013F02CFA042000906946634813F026FA72
:100430000221614813F0A0FA04215F4813F09AFAF0
:100440001CBD70B504460E460321204607F0A6F9F0
:100450000546012D02D0022D18D114E001F04BFF0A
:1004600000BFBFF34F8F0B480C38006800F4E0600A
:1004700052490843001D07490C390860BFF34F8FEC
:1004800000BF00BFFEE7FFF7A5FF00BF00BF70BDC4
:100490004090020018ED00E000E400E0537973742E
:1004A00069636BB6A8CAB1C6F7C6F4B6AFCAA7B03F
:1004B000DC0D0A00CFB5CDB3D6D8C6F4C1CB210D23
:1004C0000A000000187AFF1FB2FAC6B7CEA8D2BB46
:1004D000C9EDB7DDB1EACAB628556E6971756520F8
:1004E00044657669636520494429CEAAA3BA5B2591
:1004F000582D25582D25585DA3A10D0A0000000098
:10050000B8C3D0BEC6AC524F4DCEAAA3BA5B2575B8
:100510004B625DA3A10D0A0D0A000000535953431D
:100520004C4B5F4672657175656E63793D2575212B
:100530000D0A000048434C4B5F4672657175656E4D
:1005400063793D2575210D0A0000000050434C4B96
:10055000315F4672657175656E63793D2575210D54
:100560000A00000050434C4B325F4672657175655E
:100570006E63793D2575210D0A0D0A0055534152D0
:10058000545F446174615374727563747572653D30
:100590002575210D0A0D0A00536C6176655F446173
:1005A00074615374727563747572653D2575210DA0
:1005B0000A0D0A0058020020000402400000FA055B
:1005C000704706A03DF0E2F900BFFEE700BFFEE77E
:1005D00000BFFEE700BFFEE770477047D3B2BCFE26
:1005E000D2ECB3A30D0A000000B587B001210420AE
:1005F00014F034FA0121082014F030FA0121080522
:1006000014F075FA08220221FD4813F0C2F90822FD
:100610000C21FC4813F0BDF902208DF809008DF87B
:10062000080001208DF80B0000208DF80A004FF41F
:100630008050019001A9F34813F020F904200190A3
:1006400002208DF8080001A9ED4813F017F94FF4C6
:10065000165003900020ADF81000ADF81200ADF870
:100660001400ADF818000C20ADF8160003A9E648F8
:1006700012F0BBFE012240F22551E34812F0F3FFD5
:100680000121E14812F039FF35208DF800000020EB
:100690008DF801008DF8020001208DF803006846F6
:1006A00012F0D1FD07B000BD00B587B001210420D4
:1006B00014F0D4F90121C80414F019FA08220A210F
:1006C000D04813F066F908220B21CE4813F061F9E7
:1006D00002208DF809008DF8080001208DF80B002C
:1006E00000208DF80A004FF48060019001A9C548F0
:1006F00013F0C4F84FF40060019002208DF8080058
:1007000001A9C04813F0BAF84FF416500390002026
:10071000ADF81000ADF81200ADF81400ADF81800F7
:100720000C20ADF8160003A9B84812F05EFE0122B5
:1007300040F22551B54812F096FF0121B34812F05E
:10074000DCFE34208DF8000000208DF801008DF8CB
:10075000020001208DF80300684612F074FD07B016
:1007600000BD00B587B00121022014F077F9012106
:10077000880414F0BCF907220A21A54813F009F9EE
:1007800007220B21A24813F004F902208DF809007A
:100790008DF8080001208DF80B0000208DF80A006C
:1007A0004FF48060019001A9994813F067F84FF465
:1007B0000060019002208DF8080001A9944813F010
:1007C0005DF84FF4E13003900020ADF81000ADF873
:1007D0001200ADF81400ADF818000C20ADF81600AA
:1007E00003A98C4812F001FE012240F225518948EC
:1007F00012F039FF0121874812F07FFE27208DF883
:10080000000000208DF801008DF8020001208DF815
:100810000300684612F017FD07B000BD00B587B0B1
:100820000121084614F01AF90121480414F05FF977
:1008300007220221784813F0ACF8072203217648FA
:1008400013F0A7F802208DF809008DF808000120A8
:100850008DF80B0000208DF80A000420019001A9FA
:100860006D4813F00BF80820019002208DF8080065
:1008700001A9694813F002F84FF4E1300390002019
:10088000ADF81000ADF81200ADF81400ADF8180086
:100890000C20ADF8160003A9604812F0A6FD012255
:1008A00040F225515D4812F0DEFE01215B4812F056
:1008B00024FE26208DF8000000208DF80100022083
:1008C0008DF8020001208DF80300684612F0BBFC91
:1008D00007B000BD00B587B00121084614F0BEF88E
:1008E0000121102014F014F9072209214A4813F0BD
:1008F00050F807220A21484813F04BF802208DF8DF
:1009000009008DF8080001208DF80B0000208DF8FB
:100910000A004FF40070019001A93F4812F0AEFFA9
:100920004FF48060019002208DF8080001A93A4838
:1009300012F0A4FF4FF4E13003900020ADF8100056
:10094000ADF81200ADF81400ADF818000C20ADF8A9
:10095000160003A9324812F048FD25208DF800004A
:1009600000208DF8010002208DF8020001208DF892
:100970000300684612F067FC012240F22551284826
:1009800012F071FE0121264812F0B7FD07B000BD3C
:1009900010B5FFF79FFFFFF741FFFFF7E2FEFFF7FC
:1009A00083FEFFF721FE10BD1E4870472DE9F0477A
:1009B00007460D4695F8310500F00400002859D08F
:1009C0002C4695F82F8195F8310520F0040085F824
:1009D0003105002095F82F1160541148874241D10C
:1009E00000BF20783A283DD120783A283AD1B8F192
:1009F000080F37DD0726A146E41D00BF2EE00000EA
:100A0000000C02400008024000500040004C004032
:100A10000004024000480040000002400044004042
:100A2000001001406402002020780D2813D1607866
:100A30000A2811D1701FC1B209F1050000F054FC61
:100A4000B01CC6B2464505DAA41CA8EB060000F0AF
:100A5000FF08C6E704E0641C701CC6B24645E3DB31
:100A600000BF00BF002085F82F01B88940F00400C6
:100A7000B88100BFBDE8F08710B5FFF795FF0446C9
:100A80002146FE48FFF792FF10BD70B505460C46A3
:100A900094F83001002817DD94F83001401E84F8E6
:100AA000300194F8300190B9002240F225512846D7
:100AB00012F0D9FD002084F83105012240F22551C1
:100AC000284612F0D0FD02E0002084F8310570BD08
:100AD000EB487047EB48704791F8312502F004026B
:100AE000C2B191F83021521C81F8302191F83021A7
:100AF000642A4ED1002281F8302181F82F2191F80B
:100B0000312522F0070281F83125828942F0040262
:100B100082813EE091F8312502F00202C2B191F8E3
:100B20003021521C81F8302191F830210A2A30D12D
:100B3000002281F8302181F82F2191F8312522F00F
:100B4000070281F83125828942F00402828120E087
:100B500091F8312502F00102DAB191F83021521CEE
:100B600081F8302191F83021042A12D1002281F835
:100B7000302191F8312522F0010281F8312591F8D8
:100B8000312542F0040281F83125828922F00402E5
:100B90008281704710B5FFF707FF03461946B74833
:100BA000FFF79AFFFFF796FF04462146B648FFF786
:100BB0006CFFFFF78DFF04462146B448FFF765FF41
:100BC00010BD70B505460C46B4F8320528B3B4F82C
:100BD0003425501CA4F8340504F23110815C2846F9
:100BE00012F0B6FCB4F83405B0F5806F02D10020E5
:100BF000A4F83405B4F83205401EA4F83205B4F860
:100C00003205A0B9002240F22771284612F02BFDD0
:100C10008021284612F059FD09E0002240F2277198
:100C2000284612F020FD8021284612F04EFD70BDAE
:100C300010B591F82F41631C81F82F310A5500231C
:100C400081F8303191F82F31632B05D091F831358F
:100C500003F00203012B13D1002381F82F3191F807
:100C6000313523F0010381F8313591F8313543F006
:100C7000020381F83135838923F00403838105E081
:100C800091F8313543F0010381F8313510BD10B5CD
:100C900040F22551794812F021FD30B17748808823
:100CA000C2B27B497548FFF7C3FF40F22771734812
:100CB00012F014FD18B176497048FFF782FF10BD9D
:100CC00000BF6E49098801F040010029F9D06B4945
:100CD0008880704710B540F225516B4812F0FEFC39
:100CE000002860D0684812F037FCC4B2654890F81C
:100CF000310548B9AA2C56D10120624981F8310545
:100D00001E2081F830014EE05E4890F83105012840
:100D100018D15E2C11DA5B4880F82F410220594926
:100D200081F83105002081F82E01084690F82E0147
:100D30000C54012081F82E0135E00020514981F842
:100D4000310530E04F4890F83105022827D14D4851
:100D500090F82E014B490C54084690F82E01401C87
:100D600081F82E01084690F82E0191F82F11884243
:100D700019DD002409E04348015D6430015501207C
:100D8000404981F82C01601CC4B23E4890F82F0104
:100D9000A042F0DA00203B4981F8300103E0002056
:100DA000384981F8310540F22771374812F096FC36
:100DB00018B134493448FFF704FF10BD10B540F2B4
:100DC0002551324812F08AFC002810D02F4812F02A
:100DD000C3FBC4B22A4890F8310548B95A2C06D151
:100DE0000120274981F831051E2081F8300182E079
:100DF000234890F8310501280BD1A52C04D10220FD
:100E00001F4981F8310576E000201D4981F8310540
:100E100071E01B4890F83105022818D1322C11DA04
:100E2000174880F82F410320154981F8310500202B
:100E300081F82E01084690F82E010C54012081F80B
:100E40002E0158E000200E4981F8310553E00C488E
:100E500090F8310503284AD1094890F82E01084935
:100E60000C54084690F82E01401C81F82E010846CB
:100E700090F82E0191F82F1188420BE000100140EC
:100E8000D80C00209E07002000440040004800408D
:100E9000640200202FDDDB484078812811D1002436
:100EA00009E0D848015D643001550120D54981F839
:100EB0002C01601CC4B2D34890F82F01A042F0DA94
:100EC00010E0002409E0CF48015DC8300155012041
:100ED000CC4981F82D01601CC4B2CA4890F82F019A
:100EE000A042F0DA0020C74981F8300103E0002079
:100EF000C44981F8310540F22771C34812F0EEFB76
:100F000018B1C049C048FFF75CFE10BDBF4870472C
:100F10000120BE49087070470020BC490870704726
:100F2000BA4A917010710022B84B5A70DA700122DF
:100F30001A70704710B540F22551B54812F0CEFB3B
:100F4000002830D0B24812F007FBC4B2AF48007896
:100F500048B3AE48007998B1AC48C178401D4454BC
:100F6000401FC078401CA949C8700846C0788978DD
:100F7000884218DB0020A54908700120487012E063
:100F8000A248C178401D4454401FC078401C9F496E
:100F9000C8700846C0788978884204DB00209B49E5
:100FA00008700120487010BD9A4870470120994987
:100FB000087070470020974908707047954A9170F3
:100FC00010710022934B5A70DA7001221A70704728
:100FD00010B540F22551904812F080FB002830D027
:100FE0008D4812F0B9FAC4B28A48007848B38948EB
:100FF000007998B18748C178401D4454401FC0789B
:10100000401C8449C8700846C0788978884218DB3B
:101010000020804908700120487012E07D48C178A6
:10102000401D4454401FC078401C7A49C87008468F
:10103000C0788978884204DB002076490870012056
:10104000487010BD70B506460C46154605E00122F5
:1010500040F22771304612F006FBB4F8320540F238
:10106000FF318842F3D0B4F83615481CA4F8360591
:1010700004F231104554B4F83605B0F5806F02D152
:101080000020A4F83605002240F22771304612F005
:10109000EAFAB4F83205401CA4F83205012240F205
:1010A0002771304612F0DFFA70BD70B504460D4668
:1010B0005A48844203D15AA03CF068FC1AE05A48CE
:1010C000844203D159A03CF061FC13E04E488442B5
:1010D00003D158A03CF05AFC0CE04D48844203D1A7
:1010E00056A03CF053FC05E04B48844202D155A089
:1010F0003CF04CFC012D02D0022D08D103E053A09E
:101100003CF044FC03E055A03CF040FC00BF00BFB5
:1011100070BD1FB54FF4165000904FF48050ADF8DD
:1011200004000020ADF806004FF48060ADF8080020
:101130000020ADF80C000C20ADF80A0069463248DA
:1011400012F053F91FBD1FB54FF416500090002048
:10115000ADF80400ADF80600ADF80800ADF80C00DD
:101160000C20ADF80A006946274812F03EF91FBD71
:101170002DE9FF4107460E4614461D46002138461C
:1011800012F0BBF90096312D03D10020ADF8060016
:101190000AE0322D04D14FF40050ADF8060003E010
:1011A0004FF44050ADF80600452C01D0652C07D116
:1011B0004FF48060ADF808008000ADF8040011E045
:1011C0004F2C01D06F2C08D14FF4C060ADF808004F
:1011D0004FF48050ADF8040004E00020ADF80800A2
:1011E000ADF804000020ADF80C000C20ADF80A00AA
:1011F0006946384612F0F9F80121384612F07DF9B7
:10120000BDE8FF81D80C00200048004012120020E9
:10121000004C00407B1200200050004000100140B4
:10122000555341525431000000440040555341523F
:10123000543200005553415254330000554152542A
:10124000340000005541525435000000BDD3CAD5CA
:10125000B4A6C0EDB3ACCAB10D0A0000D2E7B3F634
:10126000BDD3CAD50D0A00001B48704701201A499A
:101270000870704770B504460E4617480078062877
:1012800026D2DFE800F025030C0D0E1AFFF78CFBC9
:101290000546E2B229461148FFF7D4FE19E018E0EE
:1012A00017E000BF0E48008800F040000028F9D089
:1012B000E0B20B49091D08800BE000BF0948008817
:1012C00000F040000028F9D0E0B20649888000E034
:1012D00000BF00BF204670BD00000020001001408C
:1012E000004C00400050004070B504460D460221FD
:1012F000204606F053FA0646072E3AD006DC62D2A4
:10130000DFE806F06113191F252B31000B2E4ED09C
:1013100006DC082E33D0092E37D00A2E53D140E0F8
:101320000C2E4AD05A2E4ED135E0E81EC1B2E01C38
:1013300001F007F84CE0E81EC1B2E01C1EF006FF09
:1013400046E0E81EC1B2E01C05F013FD40E0E81ED7
:10135000C1B2E01C0FF080FE3AE0E81EC1B2E01C12
:101360000DF021F834E0E81EC1B2E01C03F01EFCD1
:101370002EE0E81EC1B2E01C03F0F7F828E0E81EFA
:10138000C1B2E01C02F0D0FB22E0E81EC1B2E01CBA
:1013900008F080FC1CE0E81EC1B2E01CFFF751F829
:1013A00016E0E81EC1B2E01C0FF056FE10E0E81E89
:1013B000C1B2E01C09F031F80AE0E81EC1B2E01C3D
:1013C00010F0BFFC04E0314602A03CF0DFFA00BFA1
:1013D00000BF70BD41534349492E63BDD3CAD5B543
:1013E000BDCEDED0A7B5F7CAD4D6B8C1EE257521DB
:1013F0000D0A000010B5FE48807810B1012810D108
:101400000BE0FB48007838B10FF0ACFF0020F84942
:101410000870F8A03CF0BAFA03E00020F4498870A4
:1014200000BF00BF10BD10B510F026F80020F04935
:1014300008700120887010BD70B540F28B118923AF
:1014400040F2DB12002009E01D18E94C241D34F89D
:1014500015500E1824F81650441CA0B29042F3DB2D
:101460000124E34D2C7070BDF0B58DB00546E5A6A6
:101470005DB1002406E00021DD48001D20F81410B5
:10148000601C84B2B4F55A7FF5DD9FEDE50A8DED61
:101490000C0ABDF83000D6498880BDF83210D44817
:1014A000C180002101819FEDDF0A8DED0C0ABDF89E
:1014B00030104181BDF83210818100240EE016F811
:1014C00014106000401C305C01EB002082B2601DF3
:1014D000C749091D21F81020601C84B20F2CEEDBD7
:1014E0000021C348C1861E2181850A21C18501864C
:1014F0000B2141860C21818601210187B7EE000A6C
:101500008DED0C0ABDF830104187BDF8321081878F
:101510009FEDC50A8DED0C0ABDF83010C187BDF8EE
:101520003210A0F84010B7EE000A8DED0C0ABDF89D
:101530003010A0F84210BDF83210A0F8441000217D
:10154000A0F846100121A0F84810A0F84A10B7EE04
:10155000000A8DED0C0ABDF83010A0F84C10BDF853
:101560003210A0F84E10B7EE000A8DED0C0ABDF84F
:101570003010A0F85010BDF83210A0F85210012120
:10158000A0F85410A0F856109FEDA80A8DED0C0A93
:1015900000240FE0BDF8302060002A309449091D76
:1015A00021F81020BDF8322060002B3021F81020E7
:1015B000601C84B20A2CEDDB01218D48A0F87E105E
:1015C0009FED9B0A8DED0C0ABDF83010A0F880103D
:1015D000BDF83210A0F882109FED960A8DED0C0A2E
:1015E000BDF83010A0F88410BDF83210A0F88610B5
:1015F0001421A0F888101521A0F88A100021A0F865
:101600008C109FED8D0A8DED0C0ABDF83010A0F8FE
:101610008E10BDF83210A0F89010B1EE040A8DEDD6
:101620000C0ABDF83010A0F8AE10BDF83210A0F8CA
:10163000B0100021A0F8B2100A21A0F8B4100021C7
:10164000A0F8B6109FED7D0A8DED0C0ABDF83010A4
:10165000A0F8B810BDF83210A0F8BA109FED780AC3
:101660008DED0C0ABDF83010A0F8BC10BDF832109A
:10167000A0F8BE109FED730A8DED0C0ABDF8301076
:10168000A0F8C010BDF83210A0F8C2104FF0FF3023
:101690000C90BDF830105648A0F8C410BDF83210B8
:1016A000A0F8C6104FF0FF300C90BDF83010504835
:1016B000A0F8DA10BDF83210A0F8DC100021A0F874
:1016C000C810B2EE040A8DED0C0ABDF83010A0F877
:1016D000D010BDF83210A0F8D21001200C90BDF847
:1016E00030104348A0F8D410BDF83210A0F8D6103E
:1016F0009FED550A8DED0C0ABDF83010A0F8CA1008
:10170000BDF83210A0F8CC100021A0F8CE104FF494
:101710001671A0F8D8109FED450A8DED0C0ABDF8A2
:101720003010A0F8E010BDF83210A0F8E2109FEDE4
:101730003F0A8DED0C0ABDF83010A0F8E410BDF89A
:101740003210A0F8E6100121A0F8E810B7EE000A68
:101750008DED0C0ABDF83010A0F8EA10BDF832107B
:10176000A0F8EC10B3EE050A8DED0C0ABDF83010B0
:10177000A0F8EE10BDF83210A0F8F010B7EE000A95
:101780008DED0C0ABDF83010A0F8F210BDF8321043
:10179000A0F8F410B7EE000A8DED0C0ABDF8301079
:1017A000A0F8F610BDF83210A0F8F810B7EE000A55
:1017B0008DED0C0ABDF83010A0F8FA10BDF832100B
:1017C000A0F8FC107B21A0F8FE104FF4E471A0F803
:1017D000001141F2CC11A0F802110021A0F804116F
:1017E0001B21A0F806111521A0F80A110A212DE0ED
:1017F000E41200200D0AB4E6466C617368B3C9B9FF
:10180000A60D0A00B7F0C9BDD3EEC2A1B2A9BBB7FD
:10181000B1A3BFC6BCBCD3D0CFDEB9ABCBBE00003A
:101820000000CC410000CF424CB7824200000000D3
:101830001F05F6421F05F4423333B242CDCCCC3DF6
:10184000CDCC4C3E9A99993E3D0A573FA0F80E11D7
:101850000021A0F81011B1EE040A8DED0C0ABDF8BC
:101860003010A0F81611BDF83210A0F818119FED35
:10187000FE0A8DED0C0ABDF83010A0F81A11BDF863
:101880003210A0F81C11B0EE080A8DED0C0ABDF85C
:101890003010A0F81E11BDF83210A0F820111FED75
:1018A000160A8DED0C0ABDF83010A0F82211BDF813
:1018B0003210A0F824119FEDED0A8DED0C0ABDF851
:1018C0003010A0F82611BDF83210A0F82811B7EE9C
:1018D0000C0A8DED0C0ABDF83010A0F82A11BDF8E5
:1018E0003210A0F82C11B2EE020A8DED0C0ABDF8F0
:1018F0003010A0F82E11BDF83210A0F830110321DD
:10190000A0F832113E21A0F834117D21A0F8361143
:1019100040F27711A0F8381140F27121A0F83A1185
:101920004900A0F83C1140F25371A0F83E1140F676
:10193000C411A0F8401140F6A661A0F8421141F28E
:101940008831A0F844114900A0F846110321A0F8FD
:101950003211B6EE000A8DED0C0ABDF83010A0F879
:101960004811BDF83210A0F84A11B6EE000A8DED0C
:101970000C0ABDF83010A0F84C11BDF83210A0F8D8
:101980004E11B6EE000A8DED0C0ABDF83010A0F82D
:101990005011BDF83210A0F85211B6EE000A8DEDCC
:1019A0000C0ABDF83010A0F85411BDF83210A0F8A0
:1019B0005611B6EE000A8DED0C0ABDF83010A0F8F5
:1019C0005811BDF83210A0F85A119FEDA70A8DEDFD
:1019D0000C0ABDF83010A0F85C11BDF83210A0F868
:1019E0005E119FEDA10A8DED0C0ABDF83010A0F834
:1019F0006011BDF83210A0F862119FED9B0A8DEDC9
:101A00000C0ABDF83010A0F86411BDF83210A0F82F
:101A100066119FED950A8DED0C0ABDF83010A0F807
:101A20006811BDF83210A0F86A119FED8F0A8DED94
:101A30000C0ABDF83010A0F86C11BDF83210A0F8F7
:101A40006E110121A0F87011B7EE000A8DED0C0A9D
:101A5000BDF83010A0F87211BDF83210A0F8741162
:101A6000B7EE000A8DED0C0ABDF83010A0F8761123
:101A7000BDF83210A0F87811B7EE000A8DED0C0A0F
:101A8000BDF83010A0F87A11BDF83210A0F87C1122
:101A9000B7EE000A8DED0C0ABDF83010A0F87E11EB
:101AA000BDF83210A0F88011B7EE000A8DED0C0AD7
:101AB000BDF83010A0F88211BDF83210A0F88411E2
:101AC000B7EE000A8DED0C0ABDF83010A0F88611B3
:101AD000BDF83210A0F88811B7EE000A8DED0C0A9F
:101AE000BDF83010A0F88A11BDF83210A0F88C11A2
:101AF000B7EE000A8DED0C0ABDF83010A0F88E117B
:101B0000BDF83210A0F89011B7EE000A8DED0C0A66
:101B1000BDF83010A0F89211BDF83210A0F8941161
:101B2000B7EE000A8DED0C0ABDF83010A0F8961142
:101B3000BDF83210A0F89811B7EE000A8DED0C0A2E
:101B4000BDF83010A0F89A11BDF83210A0F89C1121
:101B5000B7EE000A8DED0C0ABDF83010A0F89E110A
:101B6000BDF83210A0F8A011B7EE000A8DED0C0AF6
:101B7000BDF83010A0F8A211BDF83210A0F8A411E1
:101B8000B7EE000A8DED0C0ABDF83010A0F8A611D2
:101B9000BDF83210A0F8A811B7EE000A8DED0C0ABE
:101BA000BDF83010A0F8AA11BDF83210A0F8AC11A1
:101BB000B7EE000A8DED0C0ABDF83010A0F8AE119A
:101BC000BDF83210A0F8B011B7EE000A8DED0C0A86
:101BD000BDF83010A0F8B211BDF83210A0F8B41161
:101BE000B7EE000A8DED0C0ABDF83010A0F8B61162
:101BF000BDF83210A0F8B811B7EE000A8DED0C0A4E
:101C0000BDF83010A0F8BA11BDF83210A0F8BC1120
:101C1000B7EE000A8DED0C0ABDF83010A0F8BE1129
:101C2000BDF83210A0F8C011B7EE000A8DED0C0A15
:101C3000BDF83010A0F8C211BDF83210A0F8C411E0
:101C4000B7EE000A8DED0C0ABDF83010A0F8C611F1
:101C5000BDF83210A0F8C811B7EE000A8DED0C0ADD
:101C6000BDF8301004E000009A99193F1F85AB3F82
:101C7000A0F8CA11BDF83210A0F8CC11B7EE000AD6
:101C80008DED0C0ABDF83010A0F8CE11BDF8321061
:101C9000A0F8D0119FEDFE0A8DED0C0ABDF83010B2
:101CA000A0F8D211BDF83210A0F8D411B7EE000A96
:101CB0008DED0C0ABDF83010A0F8D611BDF8321029
:101CC000A0F8D811B7EE000A8DED0C0ABDF830105F
:101CD000A0F8DA11BDF83210A0F8DC11B7EE000A56
:101CE0008DED0C0ABDF83010A0F8DE11BDF83210F1
:101CF000A0F8E011B7EE000A8DED0C0ABDF8301027
:101D0000A0F8E211BDF83210A0F8E411B7EE000A15
:101D10008DED0C0ABDF83010A0F8E611BDF83210B8
:101D2000A0F8E811B7EE000A8DED0C0ABDF83010EE
:101D3000A0F8EA11BDF83210A0F8EC119FEDD40A1A
:101D40008DED0C0ABDF83010A0F8EE11BDF8321080
:101D5000A0F8F011B7EE000A8DED0C0ABDF83010B6
:101D6000A0F8F211BDF83210A0F8F411B7EE000A95
:101D70008DED0C0ABDF83010A0F8F611BDF8321048
:101D8000A0F8F811B7EE000A8DED0C0ABDF830107E
:101D9000A0F8FA11BDF83210A0F8FC11B7EE000A55
:101DA0008DED0C0ABDF83010A0F8FE11BDF8321010
:101DB000A0F80012B7EE000A8DED0C0ABDF8301045
:101DC000A0F80212BDF83210A0F80412B7EE000A13
:101DD0008DED0C0ABDF83010A0F80612BDF83210D7
:101DE000A0F808129FEDAA0A8DED0C0ABDF830107C
:101DF000A0F80A12BDF83210A0F80C129FEDA50A47
:101E00008DED0C0ABDF83010A0F86212BDF832104A
:101E1000A0F864129FED9F0A8DED0C0ABDF83010FA
:101E2000A0F86612BDF83210A0F868129FED990A6A
:101E30008DED0C0ABDF83010A0F86A12BDF8321012
:101E4000A0F86C129FED930A8DED0C0ABDF83010CE
:101E5000A0F86E12BDF83210A0F870129FED8D0A36
:101E60008DED0C0ABDF83010A0F87212BDF83210DA
:101E7000A0F874129FED870A8DED0C0ABDF83010A2
:101E8000A0F87612BDF83210A0F8781241F61F7152
:101E9000A0F87A129FED800A8DED0C0ABDF8301083
:101EA000A0F87C12BDF83210A0F87E129FED7A0ADD
:101EB0008DED0C0ABDF83010A0F88012BDF832107C
:101EC000A0F882129FED740A8DED0C0ABDF8301057
:101ED000A0F88412BDF83210A0F886129FED6E0AA9
:101EE0008DED0C0ABDF83010A0F88812BDF8321044
:101EF000A0F88A129FED680A8DED0C0ABDF830102B
:101F0000A0F88C12BDF83210A0F88E12B7EE000ABD
:101F10008DED0C0ABDF83010A0F89012BDF832100B
:101F2000A0F89212B7EE000A8DED0C0ABDF8301041
:101F3000A0F89412BDF83210A0F89612B7EE000A7D
:101F40008DED0C0ABDF83010A0F89812BDF83210D3
:101F5000A0F89A12B7EE000A8DED0C0ABDF8301009
:101F6000A0F89C12BDF83210A0F89E12B7EE000A3D
:101F70008DED0C0ABDF83010A0F8A012BDF832109B
:101F8000A0F8A212B7EE000A8DED0C0ABDF83010D1
:101F9000A0F8A412BDF83210A0F8A61240F2DC712D
:101FA000A0F8B41240F6AA01A0F8B612A0F8B81230
:101FB0005221A0F8BC12B7EE000A8DED0C0ABDF854
:101FC0003010A0F8BE12BDF83210A0F8C012B7EE63
:101FD000000A8DED0C0ABDF83010A0F8A812BDF86B
:101FE0003210A0F8AA12BDF83010A0F8AC12BDF85B
:101FF0003210A0F8AE12BDF83010A0F8B012BDF843
:102000003210A0F8B2120021A0F8C21223480C909E
:10201000BDF830102248A0F8C412BDF83210A0F864
:10202000C61220480C90BDF830101D48A0F8C81208
:10203000BDF83210A0F8CA1278200C90BDF830100C
:102040001748A0F8D012BDF83210A0F8D21241F211
:102050002E600C90BDF830101148A0F8D412BDF8D5
:102060003210A0F8D61240F2E37006900B200590D3
:102070001C200490DDE9040100EB012080B2ADF8E2
:102080003000069880B2ADF83200BDF830100BE099
:102090009A99993F0000FA430000484287D61200FF
:1020A000E412002040E20100FB48A0F8D812BDF87D
:1020B0003210A0F8DA12BDF83010A0F8DC12BDF82A
:1020C0003210A0F8DE12BDF83010A0F8E012BDF812
:1020D0003210A0F8E212BDF83010A0F8E412BDF8FA
:1020E0003210A0F8E612BDF83010A0F8E812BDF8E2
:1020F0003210A0F8EA12BDF83010A0F8EC12BDF8CA
:102100003210A0F8EE12BDF83010A0F8F012BDF8B1
:102110003210A0F8F21218200C90BDF83010DE48F2
:10212000A0F8F412BDF83210A0F8F61241F24460A3
:102130000C90BDF83010D848A0F8F812BDF8321055
:10214000A0F8FA1240F214500C90BDF83010D248AA
:10215000A0F8FC12BDF83210A0F8FE12C8200C90B6
:10216000BDF83010CC48A0F80013BDF83210A0F82C
:10217000021341F288300C90BDF83010C648A0F828
:102180000413BDF83210A0F80613C8200C90BDF857
:102190003010C148A0F80813BDF83210A0F80C1395
:1021A00014200C90BDF83010BB48A0F80C13BDF8FB
:1021B0003210A0F80E1341F69871A0F81013B7482A
:1021C0000C90BDF83010B448A0F81213BDF83210CE
:1021D000A0F814139FEDB20A8DED0C0ABDF8301073
:1021E000A0F81613BDF83210A0F818130DB1FFF7C0
:1021F00023F94AF6AA21A848A0F8D4160FF0B2F89D
:102200001CF031FB00F51277386820F020002030F8
:102210003860A4A03BF0BAFB0DB0F0BD10B50FF0D4
:102220002BF99D48B0F8D4064AF6AA21884205D079
:102230000120FFF719F9FFF7F6F803E000209649AF
:102240000870887010BD944870472DE9F04140F245
:102250008B15892640F2DB17002409E029198E48E6
:10226000001D30F81110321920F81210601C84B2D1
:10227000BC42F3DB01208849087001F0BDF8BDE8DD
:10228000F08101468D48814201D2002070478C4880
:10229000814201D20820F9E78A48814201D2102008
:1022A000F4E78948814201D21820EFE7874881424C
:1022B00001D22020EAE78648814201D22820E5E7C2
:1022C0008448814201D23020E0E78348814201D234
:1022D0003820DBE78148814201D24020D6E78048A0
:1022E000814201D24820D1E77E48814201D250206C
:1022F000CCE75820CAE770B57B4D12F081FF002073
:1023000012F061FF2846FFF7BCFF0646022112F0DB
:10231000CBFF002409E06048001D30F81410284667
:1023200013F004F9AD1C601C84B2B4F55A7FF2DDE1
:10233000012012F048FF12F070FF0020564908708B
:1023400070BD2DE9F0412DED028B90B00646884618
:102350000321304605F022FA074640F28531781A0B
:102360008F4274D00CDC6F2F72D004DC012F0ED0A2
:10237000652F0CD10CE0C92F0ED0CA2FF9D168E01F
:10238000062804D2DFE800F003FDFCFBFA8730E109
:10239000FFF759FF011D2CE1FFF755FFB0F8B442DC
:1023A000214652A03BF0F2FAFFF74DFFB0F8B642DB
:1023B000214653A03BF0EAFAFFF745FF90F8BC42F4
:1023C000214654A03BF0E2FAFFF73DFFB0F8BE0211
:1023D000ADF83C00FFF737FFB0F8C002ADF83E00A3
:1023E0009DED0F0A10EE101A08463AF0E6FC41EC9B
:1023F000180B53EC182B4BA03BF0C8FAFFF723FF48
:10240000B0F8C24221464BA03BF0C0FAFFF71BFFD9
:10241000B0F8C402ADF83C00FFF715FFB0F8C602F3
:10242000ADF83E0047A00F993BF0B0FAFFF70BFF65
:10243000B0F8C802ADF83C00FFF705FFB0F8CA02DB
:10244000ADF83E0044A00F993BF0A0FAD1E0A1E026
:102450009FE0FFF7F8FEB0F8CC02ADF83C00FFF7C4
:10246000F2FEB0F8CE02ADF83E0040A00F993BF06E
:102470008DFA0FA83AF060FD04462C22214604A8EC
:102480003AF06AFADDE904120698CDE901210090DC
:10249000DDE9082076E0ABE0E41200204E61BC00EC
:1024A0005C8F823FCFB5CDB3D2D1BBD6B8B4B3F633
:1024B000B3A7C9E8D6C30D0A000000000040000819
:1024C0000080000800C000080000010800000208A9
:1024D00000000408000006080000080800000A08C0
:1024E00000000C0800000E0800280E08CEACBBA4AB
:1024F000C3DCC2EBA3BA253034750D0A000000001E
:10250000C0B6D1C0C5E4B6D4C2EBA3BA2530347589
:102510000D0A0000C1F7C1BFCFD4CABEA3BA25635C
:102520000D0A0000B5E7D1B9B1B6C2CAA3BA256693
:102530000D0A0000B7E7C9C8BFAAB9D8A3BA257564
:102540000D0A0000B1BEBBFABAC5C2EBC7B0B6CE29
:10255000A3BA25750D0A0000B1BEBBFABAC5C2EB1D
:10256000BAF3B6CEA3BA25750D0A0000B5F4B5E7E7
:10257000D0C5CFA2A3BA25750D0A000032E02BE02A
:1025800018E013E000F26C711DA0079B3BF0FEF910
:102590002FE02EE040F2693125A03BF0F7F92A4800
:1025A000B0F8D41629A03BF0F1F922E00120FEF7A3
:1025B0005BFF1EE02D4C002507E0228821462CA061
:1025C0003BF0E4F9A41C681C85B2B5F55A7FF4DD34
:1025D00025A03BF0DBF90CE0FEF72EFF28A03BF036
:1025E000D5F906E0FFF731FE29A03BF0CFF900E076
:1025F00000BF00BF10B0BDEC028BBDE8F081000051
:10260000B5F4B5E7CAB1BCE4A3BA2575C4EA253070
:102610003275D4C225303275C8D52025303275CAFE
:10262000B125303275B7D625303275C3EB0D0A00AF
:10263000466C617368BBBAB3E5C7F8B3A4B6C8A368
:10264000BA25750D0A000000E4120020464C4153E3
:102650004849535F41647253746F72654661637495
:102660006F72793D307825580D0A000000280E0859
:10267000257020202020307825580D0A0000000009
:10268000CAFDBEDDD2D1B1B8B7DD0D0A0000000031
:10269000CAFDBEDDD2D1BBD6B8B40D0A0000000021
:1026A00001460A78442A1ED101F1080090ED000A83
:1026B000F3EE040AB4EEE00AF1EE10FA14D89FED3E
:1026C000FE0A80ED020A9FEDFD0A80ED030A9FEDF0
:1026D000FC0A80ED040A9FEDFB0A80ED050A9FEDE0
:1026E000FA0A80ED0A0A8BE090ED000AF3EE0E0A7A
:1026F000B4EEE00AF1EE10FA14D89FEDEF0A80ED87
:10270000020A9FEDEE0A80ED030AB7EE000A80EDA3
:10271000040A9FEDEC0A80ED050A9FEDEC0A80EDBE
:102720000A0A6DE090ED000ADFEDE90AB4EEE00A76
:10273000F1EE10FA14D89FEDE00A80ED020A9FED49
:10274000DF0A80ED030A9FEDE30A80ED040A9FEDA6
:10275000DD0A80ED050A9FEDDD0A80ED0A0A4FE0F3
:1027600090ED000ADFEDDC0AB4EEE00AF1EE10FABB
:1027700014D89FEDD10A80ED020A9FEDD00A80EDBA
:10278000030AB0EE040A80ED040A9FEDCE0A80ED44
:10279000050A9FEDCE0A80ED0A0A31E090ED000AAD
:1027A000DFEDCE0AB4EEE00AF1EE10FA14D89FED98
:1027B000C20A80ED020A9FEDC10A80ED030A9FED77
:1027C000C80A80ED040A9FEDBF0A80ED050A9FED5F
:1027D000BF0A80ED0A0A13E09FEDBE0A80ED020AEF
:1027E0009FEDB60A80ED030AB0EE080A80ED040AF8
:1027F0009FEDB40A80ED050A9FEDB40A80ED0A0A48
:10280000704710B52DED028B0446B0EE408A20468D
:10281000FFF746FFA078032832D004DC012807D058
:10282000022850D113E0042833D065284BD147E06B
:102830000220A0704FF47A70A08094ED0C0ABCEED8
:10284000C00A10EE100AE0800120607000BFA0886E
:10285000A8B90320A07040F2DC50A08094ED0C0ACF
:10286000F3EE0E0A30EE200A84ED0C0A94ED0C0A09
:10287000BCEEC00A10EE100AE0800120607027E074
:10288000A08828B90420A07094ED0C0A84ED0D0AEC
:102890001EE09FED940AB4EE408AF1EE10FA0ED0DD
:1028A00084ED038A04F1080005F036F894ED0D0A72
:1028B000BCEEC00A10EE100AE0800120607007E054
:1028C0000120607004E00020A0706070E08000BF14
:1028D00000BFBDEC028B10BD10B52DED068B04467C
:1028E000B0EE408A9FED7F0AB4EE408AF1EE10FA16
:1028F00004D19FED7C0A84ED000A5AE094ED070AAA
:10290000D4ED040A08EE200A84ED000A94F82000B1
:102910004009012802D002284AD124E094ED000A9F
:10292000DFED710A20EE200A10EE101A08463AF088
:1029300044FA41EC1A0BB0EE4A0AF0EE6A0A3BF098
:10294000A1F9B0EE409AF0EE609A9FED680B53EC5F
:10295000102B51EC190B3AF043FA03D29FED590AB0
:1029600084ED000A24E094ED000ADFED5F0A20EE1A
:10297000200A10EE101A08463AF01FFA41EC1A0B22
:10298000B0EE4A0AF0EE6A0A3BF07CF9B0EE409AEB
:10299000F0EE609A9FED570B53EC102B51EC190B96
:1029A0003AF01EFA03D29FED470A84ED000A00BFF9
:1029B00000BFBDEC068B10BD10B52DED028B4F484E
:1029C0000079002876D105204C4908710846D0EDE1
:1029D000030AB0EE600A00F51960FFF77DFF474873
:1029E000D0ED1C0AB0EE600A00F6C810FFF774FFC5
:1029F000424890F82B0F00F00100E8B1404890EDFC
:102A0000F40A00F57D7080ED800A3D48D0EDC20AE1
:102A10009FED351A60EE810AB0EE600A00F26C405C
:102A2000FFF75AFF3648D0EDDB0AB0EE600A00F23D
:102A3000A440FFF751FF21E03048D0EDCB0AB0EEC3
:102A4000600A0DF0C1FAB0EE408A2E48FFF744FF4D
:102A50002A48D0ED4E0A9FED241A60EE810AB0EEAE
:102A6000600A00F67800FFF737FF2448D0ED990A96
:102A7000B0EE600A00F50B60FFF72EFF1F48D0EDA7
:102A8000CB0AB0EE600A0DF09FFAB0EE408A1D4806
:102A90003830FFF721FF1948D0EDE40AB0EE600AA4
:102AA0000DF092FAB0EE408A16487030FFF714FF2E
:102AB000124829E060E00000CDCCCC3F0000484344
:102AC000CDCC4C3F000000000000C8420000DC42BA
:102AD000000020426666E63F000070420000A0420F
:102AE000333333400024744900007A44000000006E
:102AF0000000F03F0000000000001440BC1900205E
:102B0000C81D0020BC230020D0ED350AB0EE600ABD
:102B100000F50460FFF7E0FEFE48D0ED670A1FED08
:102B20000E1A60EE810AB0EE600A00F6E800FFF7C8
:102B3000D3FEF848D0EDB20AB0EE600A00F512609C
:102B4000FFF7CAFEF348D0ED800A1FED191A60EEB8
:102B5000810AB0EE600A00F65810FFF7BDFE412072
:102B60000EF064F842200EF061F843200EF05EF89B
:102B70000CF08AFF0CF035FDBDEC028B10BD017826
:102B800001F0010149B3D0ED010A70EE800AC0EDF9
:102B9000010AD0ED010A427800F1080101EB82013F
:102BA00091ED001A70EEC10AC0ED010A4278511C85
:102BB000417000F1080101EB820181ED000A4178CA
:102BC000102901D100214170D0ED010AB3EE001AA5
:102BD000C0EE811AB0EE610A1FE04278511C4170CC
:102BE00000F1080101EB820181ED000AD0ED010A3C
:102BF00070EE800AC0ED010A417810290DD1002144
:102C00004170017841F001010170D0ED010AB3EE8D
:102C1000001AC0EE811AB0EE610A70470FB5014686
:102C2000B0EE401A0A7802F002029AB111F85C3F45
:102C30000A78521C01F85C2901F1480202EB830278
:102C400082ED001A91F85C20042A1ADB002281F838
:102C50005C2016E011F85C3F0A78521C01F85C29F0
:102C600001F1480202EB830282ED001A91F85C2028
:102C7000042A06DB002281F85C200A7842F0020276
:102C80000A7000200CE001F1480202EB8002D2ED54
:102C9000001A6A4602EB8002C2ED001A421CD0B252
:102CA0000428F0DB002025E06A4602EB8002D2ED2A
:102CB000001A6B46421C03EB820292ED002AF4EEEE
:102CC000C21AF1EE10FA13DD421C03EB8202D2EDC0
:102CD000000A6A4602EB8002D2ED001A421C03EBA6
:102CE0008202C2ED001A6A4602EB8002C2ED000ABF
:102CF000421CD0B20328D7DB002027E06A4602EB53
:102D00008002D2ED001A6B46421C03EB820292ED68
:102D1000002AF4EEC21AF1EE10FA15D2421C03EBAF
:102D20008202D2ED001AF0EE610A6A4602EB8002DE
:102D3000D2ED001A421C03EB8202C2ED001A6A4671
:102D400002EB8002C2ED000A421CD0B20228D5DBA1
:102D50001FEDA40A00200AE06A4602EB8002D2EDD1
:102D6000001A71EE801AB0EE610A421CD0B202283D
:102D7000F2DBF0EE001A80EE212AB0EE420AF0EE0D
:102D8000400AD1ED161A71EE801AB0EE610AF0EE2B
:102D9000001A80EE212AB0EE420AC1ED160A0FBDDC
:102DA00030B50446B0EE403A0D461FEDB20AB4EE1F
:102DB000403AF1EE10FA04D11FEDB60A84ED000A94
:102DC00011E0B0EE430A201DFFF728FFF0EE402A85
:102DD0003DB1B0EE620A201DFFF7D1FE84ED000A7E
:102DE00001E0C4ED002A30BDF8B5044602252046B6
:102DF00004F0B6FC00287DD000263CE02846691C83
:102E0000CDB2205C8DF800002846691CCDB2205C54
:102E10008DF801002846691CCDB2205C8DF80200B7
:102E20002846691CCDB2205C8DF803000A2E11DB08
:102E3000102E0FDCDDED000AB0EE600A06EBC601D5
:102E400001EB061233490C3101EB82000121FFF73F
:102E5000A7FF0EE0DDED000AB0EE600A06EBC6014A
:102E600001EB06122B490C3101EB82000021FFF728
:102E700097FF701CC6B2122EC0DB681CC5B2284674
:102E8000691CCDB2205C234981F8280F2846691CB3
:102E9000CDB2215C1F4880F82B1F2846691CCDB29B
:102EA000205C8DF800002846691CCDB2205C8DF8AE
:102EB00001002846691CCDB2205C8DF8020028462E
:102EC000691CCDB2205C8DF80300DDED000AB0EE88
:102ED000600A00211048FFF763FF2846691CCDB245
:102EE000205C8DF800002846691CCDB2205C8DF86E
:102EF000010000E05DE02846691CCDB2205C8DF841
:102F000002002846691CCDB2205C8DF80300DDED7F
:102F1000000A03E0BC190020D0200020B0EE600AB7
:102F20000021FE48FFF73CFF2846691CCDB2205C1B
:102F30008DF800002846691CCDB2205C8DF8010098
:102F40002846691CCDB2205C8DF802002846691C19
:102F5000CDB2205C8DF80300DDED000AB0EE600A12
:102F60000021EE486430FFF71BFF2846691CCDB2F4
:102F7000215CEB48A0F8301FB0F8300F4FF6FF711E
:102F800001EA0021E648A0F8301FB0F8302F2846AB
:102F9000691CCDB2205C104481B2E148A0F8301F1A
:102FA0002846691CCDB2215CDD4880F82D1F012028
:102FB000F8BD0020FCE7F0B587B0064600240122EA
:102FC0002146641C02A84254D54890F8292E214677
:102FD000641C02A84254D24890F8692E2146641C11
:102FE00002A84254CE4890F8A92E2146641C02A89B
:102FF0004254CB48B0F8AE0E01909DF80420214613
:10300000641C02A842549DF805202146641C4254C9
:10301000C34890F8E92E2146641C02A84254C048D7
:10302000B0F8EE0E01909DF804202046611CCCB251
:1030300002A90A549DF805202046611CCCB202A9C1
:103040000A54B74890F8292F2046611CCCB202A937
:103050000A54B34890F8290F18B10021B04880F8FD
:10306000291FAF4890F82A2F2046611CCCB202A934
:103070000A54AB4890F82A0F012803D10020A84930
:1030800081F82A0FA64890F82C2F2046611CCCB25C
:1030900002A90A54A248B0F82E0F01909DF805200D
:1030A0002046611CCCB202A90A549DF80420204697
:1030B000611CCCB202A90A54214602A804F038FBD4
:1030C0000190BDF8040002122046611CCCB202A996
:1030D0000A54BDF80400C2B22046611CCCB202A959
:1030E0000A54FDF7F7FC0746324639468D48FDF78E
:1030F000A9FFFDF7EFFC0746224639468948FDF750
:10310000A1FF00250AE0FDF7E5FC074602A8425DA5
:1031100039468448FDF796FF681CC5B2A542F2DB2C
:1031200007B0F0BD10B57E48007A012804D002280F
:1031300014D0FB287ED176E0AA20FFF73CFFFF20C9
:1031400077498871642176484181FDF7C3FC0021ED
:1031500080F82C110221724801726BE0FDF7BAFC75
:1031600090F82C01012835D1FDF7B4FC002180F83E
:103170002C11FDF7AFFC00F164042046FFF734FE8C
:10318000E8B96748C079142806DA6548C079401C58
:10319000C1B26348C17115E000200DE09FED620AE5
:1031A00000EBC00101EB00125D490C3101EB820123
:1031B00081ED000A411CC8B21128EFDB02E00021BA
:1031C0005748C171C8215648418101214172FB21F4
:1031D000017227E05248408920BB5148C079142829
:1031E00006DA4F48C079401CC1B24D48C17112E0A7
:1031F00000200DE09FED4C0A00EBC00101EB001236
:1032000047490C3101EB820181ED000A411CC8B233
:103210001128EFDB00BFC8214148418101214172E3
:10322000FB21017206E03E48408910B93C48417AD2
:10323000017200BF00BF10BD10B52DED028BFFF76E
:1032400071FFFFF7B9FB0DF0BEFA00F6983090ED74
:10325000040AB0EE408A3548FFF7D3FA0DF0B3FA0E
:1032600000F5B95090ED040AB0EE408A2F4840387E
:10327000FFF7C7FABDEC028B10BD02461078572845
:1032800001D1002070471078532801D10020F9E7C0
:103290001078472827D102F108019FED250A81ED1A
:1032A000020A9FED240A81ED030A9FED230A81EDB6
:1032B000040A9FED1F0A81ED050A9FED200A81EDAA
:1032C0000C0A9FED1B0A81ED0A0A9FED1D0A81ED94
:1032D000090A9FED1B0A81ED060A9FED190A81ED8F
:1032E000070A0020CEE71078442841D102F10801F6
:1032F0009FED140A81ED020A9FED0E0A81ED030A8B
:103300009FED0D0A81ED040A9FED0D0A81ED050A7E
:103310009FED0D0A81ED0C0A18E000003421002019
:10332000BC1900200044004000247449A428002057
:103330000000FA440000C84200007A4400E87D47DB
:10334000000000009A99993F0020CB459FEDFE0AAE
:1033500081ED0A0A1FED060A81ED090A1FED080A30
:1033600081ED060A1FED0A0A81ED070A002089E7B0
:10337000FF2087E700214170C1808170704738B518
:103380000446FEF760FF051D35F81400ADF8000097
:10339000601C35F81000ADF802009DED000A38BD44
:1033A00070B505460C462046FFF7E9FF85ED060A95
:1033B00070BD70B505460C462046FFF7E0FF85ED71
:1033C000050A70BD70B505460C462046FFF7D7FFCD
:1033D00085ED040A70BD70B52DED028B04460D46D7
:1033E000B0EE408A2846FFF7CAFF30EE480A84ED67
:1033F000070ABDEC028B70BD10B59FEDD40A4FF4E7
:10340000A271D348FFF7E7FF9FEDD00A4FF49E71FA
:10341000CF487030FFF7DFFF9FEDCC0A4FF4A0716B
:10342000CB48A830FFF7D7FF9FEDC80A4FF49F7134
:10343000C7483830FFF7CFFF9FEDC40A4FF4A171A2
:10344000C3483838FFF7C7FF9FEDC20A40F22F117B
:10345000C148FFF7C0FF9FEDBF0A40F23511BE48DB
:103460003830FFF7B8FF9FEDBB0A40F23311BA487E
:103470007030FFF7B0FF9FEDB70A40F23711B64842
:10348000A830FFF7A8FF9FEDB30A40F23111B04812
:10349000A838FFF7A0FF9FEDAF0A40F23911AC4802
:1034A0007038FFF798FF1FED5A0ACD21A848E03089
:1034B000FFF791FF1FED5E0ACF21A848FFF78BFFB2
:1034C0001FED610AD121A5483830FFF784FF1FEDB9
:1034D000640AD321A1487030FFF77DFF1FED680A11
:1034E000D5219E48A830FFF776FF1FED6B0AD92142
:1034F0009B48FFF770FF1FED6E0AD72198483838B8
:10350000FFF769FF4FF4A37191487030FFF75AFF3E
:103510004FF4A4718E483838FFF754FF4FF4A5716B
:103520008E487038FFF74EFFDB218C483838FFF7A4
:1035300049FFE92189483838FFF73BFFF7218748E1
:103540003838FFF72DFFDD218448FFF73BFFEB21E3
:103550008248FFF72EFFF9218048FFF721FFDF2186
:103560007E483830FFF72EFFED217C483830FFF7DA
:1035700020FFFB2179483830FFF712FFE12177481F
:103580007030FFF71FFFEF2174487030FFF711FF15
:10359000FD2172487030FFF703FFE3217048703857
:1035A000FFF710FFF1216E487038FFF702FFFF218F
:1035B0006B487038FFF7F4FEE52169483838FFF7AB
:1035C00001FFF32166483838FFF7F3FE40F201119E
:1035D00063483838FFF7E4FEE7216148FFF7F2FE61
:1035E000F5215F48FFF7E5FE40F203115C48FFF765
:1035F000D7FE10BD1FEDB40A80ED000A002180F84F
:10360000201041841FEDB20A80ED0A0A1FEDB40AB2
:1036100080ED0B0A1FEDB60A80ED0C0A81841FEDC8
:10362000B80A80ED0D0AB7EE000A80ED040A1FED1E
:10363000BC0A80ED070A7047002032E0002200EB50
:10364000C00101EB0013474901EB83014A7100EB14
:10365000C00101EB0013434901EB83010A711FED27
:10366000C80A00EBC00101EB00123E4901EB8201E8
:1036700081ED020A002200EBC00101EB0013394981
:1036800001EB830181F860201FEDD90A00EBC00136
:1036900001EB0012334901EB820181ED000A411C6C
:1036A000C8B21228CADB704701212E480C380172BB
:1036B0001421C171704710B5FFF7F6FFFFF7BCFF8B
:1036C0002348FFF797FF22487030FFF793FF234806
:1036D0007038FFF78FFF1E483830FFF78BFF1C480C
:1036E0003838FFF787FF1C48FFF784FF1A48383047
:1036F000FFF780FF18487030FFF77CFF1648A830AE
:10370000FFF778FF1248A838FFF774FF10487038A9
:10371000FFF770FF11483838FFF76CFF0F48FFF7CD
:1037200069FF0E483830FFF765FF0C487030FFF72F
:1037300061FF0B487038FFF75DFF09483838FFF725
:1037400059FF074810E000000000F0420000484226
:10375000842300200000FA43FC2100209C24002048
:10376000B4250020C8190020FFF744FFF948FFF7EF
:1037700041FFF8483830FFF73DFFF6487030FFF75B
:1037800039FFF448A830FFF735FFF248E030FFF783
:1037900031FFF148FFF72EFFEF483830FFF72AFFDF
:1037A000FFF72AFE5720ED4981F8280E532081F8B3
:1037B000680E472081F8A80E442081F8E80E01F633
:1037C0002860FFF7D7FDE448E830FFF7D3FDE44871
:1037D000FFF7D0FDE2484030FFF7CCFDE0488038ED
:1037E000FFF74BFDDE484038FFF747FDDC48FFF7A9
:1037F00044FDDB484030FFF740FD0020D74981F809
:103800002A0F0021D548A0F8301F80F82D1FA0F8FE
:103810002E1F80F82C1F10BDD048408928B1CF48FA
:103820004089401E81B2CD484181CC48007920B109
:10383000CA480079401EC9490871C848B0F8AC0EA2
:1038400038B1C648B0F8AC0E401E81B2C348A0F8EB
:10385000AC1EC248B0F8EC0E38B1C048B0F8EC0E5F
:10386000401E81B2BD48A0F8EC1EBC48B0F8640E02
:10387000401C81B2B948A0F8641EB0F8A40E401CE8
:1038800081B2B648A0F8A41EB0F8E40E401C81B284
:10389000B248A0F8E41EB0F8240F401C81B2AF4833
:1038A000A0F8241F7047AD48704770B52DED028B0E
:1038B00082B004460D46B0EE408AFEF7C4FC061DF9
:1038C00094ED070AD4ED000A30EE600A84ED070A91
:1038D00094ED070A30EE080A8DED010ABDF80400E8
:1038E00026F81500BDF80610681C26F8101002B066
:1038F000BDEC028B70BD10B51FED6A0A40F23511A8
:103900009848FFF7D2FF1FED6D0A40F2331195483A
:103910003830FFF7CAFF1FED710A40F237119148A6
:103920007030FFF7C2FF1FED750A40F231118D486C
:10393000A830FFF7BAFF1FED790A40F23911894824
:10394000E030FFF7B2FFFEF77EFC0121017010BDF1
:1039500010B51FED820A4FF4A2718348FFF7A5FF4F
:103960001FED860A4FF49E717F487030FFF79DFF70
:103970001FED8A0A4FF4A0717B48A830FFF795FF2E
:103980001FED8E0A4FF49F7177483830FFF78DFF97
:103990001FED920A4FF4A17173483838FFF785FF85
:1039A000FEF751FC0121017010BD10B5FEF74BFC74
:1039B00090F87A0200F0010080B16A48783890ED02
:1039C000AA0AF3EE050A30EE600A80EDAA0A9FED1E
:1039D000670ACD2100F52A70FFF767FFFEF733FC79
:1039E00090F87A02C0F3400028B19FED600ACF2121
:1039F0005F48FFF75AFFFEF726FC90F87A02C0F303
:103A0000800030B19FED590AD12159483830FFF775
:103A10004CFFFEF718FC90F87A02C0F3C00030B1FA
:103A20009FED520AD32152487030FFF73EFFFEF758
:103A30000AFC90F87A02C0F3001030B19FED4B0AF7
:103A4000D5214B48A830FFF730FFFEF7FCFB90F87C
:103A50007A02C0F3401030B19FED440AD7213D48AF
:103A6000A838FFF722FFFEF7EEFB90F87A02C0F3CA
:103A7000801080B13B48783890EDFE0ADFED3D0ABA
:103A800030EE600A80EDFE0A9FED380AD92100F57C
:103A90007E70FFF70AFFFEF7D6FB0121017010BD13
:103AA000024665209070D180012050700020704740
:103AB000014600208870C8804870704710B50146E4
:103AC00000200A4682ED020ADFED280AC2ED080A4C
:103AD000DFED260AC2ED090ADFED240AC2ED0A0A6B
:103AE000DFED220AC2ED0B0ADFED200AC2ED0D0A5E
:103AF0004FF47A7494870123937010BD014600201F
:103B00000A4682ED020A704700B502461046FFF7EA
:103B1000CFFF00BD0121114880F8291E7047002108
:103B20000E4880F8291E704770B52DED028B0546B2
:103B30000E460321284603F031FE04460E2C7DD0AC
:103B40001FDC0B2C7BD017DC012C23D0022C77D16F
:103B5000D0E10000242600203C270020BC190020D2
:103B6000642800203422002084230020000000006C
:103B70009C2400209A99993E0C2C7CD00D2CE6D1E7
:103B80005CE1152C78D0162C77D0172C76D0182C19
:103B9000DDD1A7E1DB4890ED640A10EE101A08466B
:103BA00039F00BF941EC180B53EC182BD6A039F077
:103BB000EDFED44890ED720A10EE101A084639F066
:103BC000FCF841EC180B53EC182BD4A039F0DEFEB6
:103BD000CC4890ED100A10EE101A084639F0EDF8B6
:103BE00041EC180B53EC182BD0A039F0CFFEC54890
:103BF00090ED1E0A10EE101A084639F0DEF841EC7E
:103C0000180B53EC182BCDA039F0C0FEBD4890ED39
:103C10002C0A10EE101A084639F0CFF841EC180BB8
:103C200053EC182BC9A039F0B1FEB64890ED3A0A12
:103C300010EE101A084639F0C0F802E01AE1C1E0AF
:103C40005BE141EC180B53EC182BC4A039F09EFE3D
:103C5000AC4890ED480A10EE101A084639F0ADF85D
:103C600041EC180B53EC182BC0A039F08FFEA5487F
:103C700090ED560A03E0C1E01CE123E12AE110EED9
:103C8000101A084639F099F841EC180B53EC182B30
:103C9000BAA039F07BFE9B4890ED800A10EE101A16
:103CA000084639F08AF841EC180B53EC182BB7A0F2
:103CB00039F06CFE934890ED8E0A10EE101A08460B
:103CC00039F07BF841EC180B53EC182BB2A039F00B
:103CD0005DFE8C4890ED9C0A10EE101A084639F0F3
:103CE0006CF841EC180B53EC182BAFA039F04EFEDA
:103CF000844890EDAA0A10EE101A084639F05DF8D3
:103D000041EC180B53EC182BABA039F03FFE7D486B
:103D100090EDB80A10EE101A084639F04EF841EC52
:103D2000180B53EC182BA7A039F030FE754890ED16
:103D3000C60A10EE101A084639F03FF841EC180B8D
:103D400053EC182BA3A039F021FE6E4890EDD40A55
:103D500010EE101A084639F030F841EC180B53EC0D
:103D6000182B9FA039F012FE664890EDE20A10EE83
:103D7000101A084639F021F841EC180B53EC182BB7
:103D80009BA039F003FE5F4890EDF00A10EE101A88
:103D9000084639F012F841EC180B53EC182B97A099
:103DA00039F0F4FD574890EDFE0A10EE101A08465F
:103DB00039F003F841EC180B53EC182B93A039F0B1
:103DC000E5FD9BE00121954880F8A91EB0F8AE0EF4
:103DD0000A3081B29148A0F8AE1EB0F8AE0EB0F530
:103DE000803F04DB4FF6FF718C48A0F8AE1E8B4875
:103DF000B0F8AE1E8AA039F0C9FD7FE001218748E6
:103E000080F8A91EB0F8AE0E0A2807DD8348B0F886
:103E1000AE0E0A3881B28148A0F8AE1E7F48B0F8D5
:103E2000AE0E0A2803DC00217C48A0F8AE1E7B48B9
:103E3000B0F8AE1E7FA039F0A9FD5FE00121774800
:103E400080F8E91EB0F8EE0E0A3081B27348A0F88F
:103E5000EE1EB0F8EE0EB0F5803F04DB4FF6FF71BA
:103E60006E48A0F8EE1E6D48B0F8EE1E76A039F050
:103E70008DFD43E00121694880F8E91EB0F8EE0E9F
:103E80000A2807DD6548B0F8EE0E0A3881B26348AB
:103E9000A0F8EE1E6148B0F8EE0E0A2803DC0021FF
:103EA0005E48A0F8EE1E5D48B0F8EE1E66A039F040
:103EB0006DFD23E00121594880F8291E67A039F0E3
:103EC00065FD1BE00021554880F8291E66A039F0E9
:103ED0005DFD13E00121514880F8691E65A039F0AD
:103EE00055FD0BE000214D4880F8691E64A039F0B3
:103EF0004DFD03E0FFF7FFFC00E000BF00BFBDEC9D
:103F0000028B70BDBC210020443138423230BCC627
:103F1000CEC2A3BA25660D0A000000003538303540
:103F2000CEC2B6C8A3BA25660D0A0000B4F3C6F81F
:103F3000D1B9A3BA25660D0A0000000041C2B7B688
:103F4000AFD1B9A3BA25660D0A00000041C2B7BEC1
:103F5000B2D1B9A3BA25660D0A000000B3BEB6AF50
:103F6000D1B9A3BA25660D0A00000000B3BEBEB2E7
:103F7000D1B9A3BA25660D0A00000000C6F8B6AF95
:103F8000D1B9A3BA25660D0A00000000D1CCCEC27B
:103F9000A3BA25660D0A0000B8C9C7F2CEC2B6C8DA
:103FA000A3BA25660D0A0000CAAAC7F2CEC2B6C8D7
:103FB000A3BA25660D0A00004F32204144A3BA255A
:103FC000660D0A00534F32204144A3BA25660D0AFC
:103FD000000000004E4F204144A3BA25660D0A00A0
:103FE0004E4F32204144A3BA25660D0A000000005E
:103FF000434F204144A3BA25660D0A00483253209E
:104000004144A3BA25660D0A00000000434F322048
:104010004144A3BA25660D0A00000000BC19002027
:104020000AC6F8B1C3504535D5BCBFD5B1C82B20A1
:10403000256420000AC6F8B1C3504535D5BCBFD5AC
:10404000B1C82D20256420000AB3BEB1C35041354C
:10405000D5BCBFD5B1C82B25642000000AB4F2BF7F
:10406000AACBAEB1C30000000AB9D8B1D5CBAEB16E
:10407000C30000000AB4F2BFAAB5E7B4C5B7A700F1
:104080000AB9D8B1D5B5E7B4C5B7A700F64890EDE1
:104090006C0ADFEDF60AB4EEE00AF1EE10FA03DD89
:1040A0000120F14948700CE0EF4890ED6C0ADFED1B
:1040B000F00AB4EEE00AF1EE10FA02D20020EA496A
:1040C0004870E94890ED350ADFEDE80AB4EEE00A01
:1040D000F1EE10FA03DD0120E34908700CE0E2483C
:1040E00090ED350ADFEDE20AB4EEE00AF1EE10FAE7
:1040F00002D20020DC490870DB4890ED350ADFED84
:10410000DB0AB4EEE00AF1EE10FA03D8002180F8E1
:10411000DC1024E0D44890ED350AF3EE0D0AB4EE3D
:10412000E00AF1EE10FA03DB642180F8DC1016E0FF
:10413000CD4890ED350ADFEDCD0A30EE600ADFEDB7
:10414000CD0A80EE201A9FEDCC0A21EE000ABCEECB
:10415000C00A10EE100AC1B2C34880F8DC107047E4
:1041600070B50221C54811F085FD002854D0BE4825
:104170008078012851D1C14811F097FC0111BA484B
:1041800090F8CC2090F8CC00401CC3B2B64880F820
:10419000CC30001D20F81210001F90F8CC006428CD
:1041A00003DB0021B04880F8CC100024002506E095
:1041B000AD48001D30F815000444681CC5B2642DDC
:1041C000F6DB00EE104AB8EE400ADFEDAB0A80EEF7
:1041D000201AA54880ED341A90ED340ADFEDA80AC4
:1041E00020EE200A80ED340A90ED340AD0ED360A34
:1041F00020EE200AF2EE060A20EE200A80ED350AB3
:10420000072301220A219D4811F0B7FB9B4811F0BA
:1042100010FC022094498870A8E093488078022816
:1042200051D1964811F041FC01118F4890F8A82116
:1042300090F8A801401CC3B28B4880F8A831E03048
:1042400020F81210E03890F8A801642803DB002160
:10425000854880F8A8110024002506E08248E03057
:1042600030F815000444681CC5B2642DF6DB00EE7E
:10427000104AB8EE400ADFED800A80EE201A7A4834
:1042800080ED6B1A90ED6B0ADFED7D0A20EE200ABF
:1042900080ED6B0A90ED6B0AF7EE000A20EE200A23
:1042A000F2EE060A20EE200A80ED6C0A07230122B6
:1042B0000D21724811F061FB704811F0BAFB032028
:1042C0006949887052E06848807803284ED16B486D
:1042D00011F0EBFB0111644890F8842290F88402FD
:1042E000401CC3B2604880F8843200F5DE7020F8CC
:1042F00012105D4890F88402642803DB00215A48BC
:1043000080F884120024002505E05E4830F815008E
:104310000444681CC5B2642DF7DB00EE104AB8EE09
:10432000400ADFED550A80EE201A4F4880EDA21AB0
:1043300090EDA20ADFED520A20EE200A80EDA20ADB
:10434000D0EDA20A9FED501AB2EE090A01EE600A02
:1043500080EDA30A072301220B21484811F00DFB31
:10436000464811F066FB01203F49887070BD10B5CA
:10437000FFF7F6FEFFF78AFE10BD08B5FDF763FFF5
:10438000B0F8A402ADF80000FDF75DFFB0F8A6029A
:10439000ADF802009DED000A334880ED360A08BDF5
:1043A00010B500203049087048709FED380A084663
:1043B00080ED360A9FED350A80ED350A9FED330A10
:1043C00080ED340A9FED310A80ED360A002180F835
:1043D000CC10002406E000212348001D20F8141012
:1043E000601CC4B2642CF6DBFFF7C7FF9FED270A01
:1043F0001D4880ED6D0A9FED250A80ED6C0A9FED4A
:10440000230A80ED6B0AB7EE000A80ED6D0A0021E9
:1044100080F8A811002406E000211A48DC3820F8B2
:104420001410601CC4B2642CF6DB9FED180A0E4811
:1044300080EDA40A9FED150A80EDA30A9FED130AF3
:1044400080EDA20AB7EE000A80EDA40A002180F8F0
:104450008412002405E000210A4820F81410601C92
:10446000C4B2642CF7DB10BDF02800209A99994162
:1044700033339741CCCC1C410000C842002001409E
:104480000000403AAC2A0020EC51A8400000000097
:1044900000B58DB00121042010F0E0FA01210802DE
:1044A00010F036FB01200B9003208DF83000002027
:1044B0008DF833000BA95E480FF0E0F902200B9055
:1044C00003208DF8300000208DF833000BA95848E8
:1044D0000FF0D4F908200B9003208DF83000002055
:1044E0008DF833000BA952480FF0C8F901210802DA
:1044F00010F063FB00214FF4807010F05EFB002091
:1045000007900A9009904FF48030089007A811F0A6
:10451000DDF9002001908DF808008DF80900039066
:104520004FF40060059001208DF8180001A9414862
:1045300011F09DF901213F4811F0DFF90723012215
:104540000B213C4811F019FA3A4811F072FA012097
:10455000394988700DB000BD10B5FFF799FFFFF71E
:104560001FFF10BD70473448704770B52DED028BAA
:1045700082B005460E460321284603F00FF9044693
:10458000652C02D0C92C49D12DE02B4890ED340A7E
:1045900010EE101A084638F010FC41EC180B53ECE2
:1045A000182B26A039F0F2F9234890ED350A10EEC9
:1045B000101A084638F001FC41EC180B53EC182B8C
:1045C00022A039F0E3F91C4890ED360A10EE101ADB
:1045D000084638F0F2FB41EC180B53EC182B1FA0E7
:1045E00039F0D4F91FE0FDF72EFEB0F8BE02ADF8A9
:1045F0000400FDF728FEB0F8C002ADF806009DEDFE
:10460000010A10EE101A084638F0D7FB41EC180BDF
:1046100053EC182B15A039F0B9F904E0214619A084
:1046200039F0B4F900BF00BF02B0BDEC028B70BD21
:104630000008024000200140F0280020B2C9BCAFB1
:10464000B5E7D1B9A3BA25660D0A0000BCC6CBE315
:10465000B5E7D1B9A3BA25660D0A0000B5E7D1B90F
:10466000B1B6C2CAA3BA25660D0A0000B5B1C7B07B
:10467000C9E8D6C3B5E7D1B9B1B6C2CAA3BA2566EF
:104680000D0A0000626174746572792E63BDD3CA2D
:10469000D5B5BDCEDED0A7B5F7CAD4D6B8C1EE2504
:1046A00075210D0A00000000704770B5FE48408873
:1046B000401EFD4948800846408800287DD12820BA
:1046C000488008468079062878D2DFE800F0770332
:1046D0005091FEFD4FF48041F4480FF04DF94FF436
:1046E0000041F2480FF048F90221F1480FF044F977
:1046F0000121EF480FF040F90020EB4908704871A4
:1047000048714FF40051E9480FF01AF905464FF48B
:104710000071E8480FF014F945EA40054FF40061D4
:10472000E4480FF00DF945EA80054FF40051E148E7
:104730000FF006F945EAC0052021DC480FF000F92A
:1047400045EA00150221DC480FF0FAF845EA401569
:104750008021D8480FF0F4F845EA8010C0B240F04C
:104760008004FF2C02D00220CF498871C7E14FF4AA
:104770000051CE480FF0E4F805464FF40071CD48E3
:104780000FF0DEF845EA40054FF40061C9480FF02C
:10479000D7F845EA80054FF40051C6480FF0D0F82D
:1047A00045EAC0052021C1480FF0CAF845EA0015C6
:1047B0000221C1480FF0C4F801E0A2E19BE145EA03
:1047C00040158021BB480FF0BBF845EA8010C0B20D
:1047D00040F08004FF2C03D10120B349887106E02A
:1047E000B14804710320B04988710120488086E1F6
:1047F0004FF48041AD480FF0BDF84FF40041AB4895
:104800000FF0BAF80221AA480FF0B6F80121A84823
:104810000FF0B2F84FF40051A4480FF091F805469C
:104820004FF40071A3480FF08BF845EA40054FF4B0
:104830000061A0480FF084F845EA80054FF400516C
:104840009C480FF07DF845EAC005202197480FF0FD
:1048500077F845EA0015022197480FF071F845EA0C
:104860004015802193480FF06BF845EA8010C0B2E4
:1048700040F08004FF2C05D101208B4948710420B1
:1048800088713CE14FF4804188480FF075F84FF48F
:10489000004186480FF06EF8022185480FF06CF851
:1048A000012183480FF068F84FF400517F480FF062
:1048B00047F805464FF400717E480FF041F845EA8D
:1048C00040054FF4006101E0D3E0BCE079480FF00F
:1048D00037F845EA80054FF4005176480FF030F87C
:1048E00045EAC005202171480FF02AF845EA001575
:1048F000022171480FF024F845EA401580216D48E7
:104900000FF01EF845EA8010C0B240F08004FF2C82
:1049100005D102206449487104208871EFE04FF40A
:10492000804162480FF028F84FF400415F480FF0D3
:1049300023F802215E480FF01DF801215C480FF0BA
:104940001BF84FF4005159480EF0FAFF05464FF49A
:10495000007158480EF0F4FF45EA40054FF400613D
:1049600054480EF0EDFF45EA80054FF400515148E0
:104970000EF0E6FF45EAC00520214C480EF0E0FFAE
:1049800045EA001502214C480EF0DAFF45EA4015D1
:10499000802148480EF0D4FF45EA8010C0B240F0B4
:1049A0008004FF2C05D103203F4948710420887101
:1049B000A5E04FF480413D480EF0DEFF4FF400418A
:1049C0003A480EF0D9FF022139480EF0D5FF0121F7
:1049D00037480EF0CFFF4FF4005134480EF0B0FFCF
:1049E00005464FF4007133480EF0AAFF45EA400532
:1049F0004FF400612F480EF0A3FF45EA80054FF405
:104A000000512C480EF09CFF45EAC00520212748A4
:104A10000EF096FF45EA0015022127480EF090FFA0
:104A200045EA4015802123480EF08AFF45EA8010B0
:104A3000C0B240F08004FF2C04D104201A49487110
:104A400088715CE05BE0184A1179002005E001F014
:104A5000010202B903E04910401C0728F7DB00BF40
:104A6000114A527900EB02120F4B1A7005229A710B
:104A700000BF0D480279017810A038F087FF0A487E
:104A8000017816A038F082FF012007498871C820FC
:104A9000488019F0E8FE90F83301022802D1002086
:104AA00001490870642023E0020000200008024051
:104AB000000002400010024000040240B0B4BCFC00
:104AC000D6B558446174613D30582532782C205950
:104AD000446174613D30582532780000B0B4BCFCAC
:104AE000D6B54B6579446174613D30582532780004
:104AF00009F0F5FF03E001203E49887100BF00BFC7
:104B000000BF70BD00203B49087014204880012080
:104B1000887100204871087170471CB50121172069
:104B20000FF09CFF022000908DF8050000208DF80A
:104B3000040001208DF8070000208DF8060069466A
:104B40002D480EF09BFE42F22000009069462B4853
:104B50000EF094FE4FF42A500090694628480EF05B
:104B60008DFE802126480EF005FF4FF40071244889
:104B70000EF000FF01208DF804000320009069462C
:104B800020480EF07BFE4FF44040009069461B48E1
:104B90000EF074FE1CBD10B5FFF7BFFFFFF7B2FFAC
:104BA00010BD144870477047704770472DE9F041B9
:104BB00004460F460321204602F0F0FD0546652D10
:104BC00002D0662D13D111E00321201D02F0E6FD75
:104BD000C6B219F048FE80F8946019F044FE90F8CF
:104BE0009460314608A038F0D1FE00E000BF00BF5D
:104BF000BDE8F081020000200004024000080240ED
:104C00000010024000000240C9E8D6C3B5C4D0C2BB
:104C10004B657944617461D6B5CEAAA3BA25750DEA
:104C20000A000000F1487047F048808820B1EF4842
:104C30008088401EED498880704770B5B6B0064642
:104C4000002415E0002508E0202104EB8402E84858
:104C500000EB42004155681CC5B2092DF4DB2C2144
:104C600004EB8402E24800EB42004172601CC4B2D3
:104C70000A2CE7DB0D21DD4880F894110A2180F829
:104C8000951132466946062005F06CF800208DF833
:104C90000600D8A103A837F0B0FE694603A837F094
:104CA0007FFE092203A9D24837F086FED2A00088F1
:104CB000ADF80C000422D149684637F07DFE002093
:104CC0008DF80400694603A837F06AFE0222CB493A
:104CD000491D684637F070FE00208DF802006946D5
:104CE00003A837F05DFE0222C4490831684637F058
:104CF00063FE00208DF80200694603A837F050FEDD
:104D0000092203A9BA480A3037F056FEB9A103A810
:104D100037F073FE0222B9490B31684637F04CFE7A
:104D200000208DF80200694603A837F039FE022200
:104D3000B2490E31684637F03FFE00208DF8020080
:104D4000694603A837F02CFE0222AC4911316846AF
:104D500037F032FE00208DF80200694603A837F0D4
:104D60001FFE092203A9A248143037F025FE36B0F1
:104D700070BDFEB504460D4616462146284637F05E
:104D80003CFE32466946062004F0ECFF00208DF818
:104D900006009BA1284637F003FE6946284637F0F7
:104DA000FFFD98A1284637F0FBFD2946284637F03D
:104DB00024FEFEBD70472DE9F043BFB0074688468C
:104DC00015461E46012239469048006812F08BFEB7
:104DD0008146B9F1000F2FD18DA038F0D7FD2946BB
:104DE0008A48006813F07EF98146B9F1000F17D1A7
:104DF0008648FA210268684614F034FB834800684C
:104E00008068401BB04206D132466946404637F0C2
:104E1000D3FD002408E083A038F0B8FD032403E0AC
:104E200085A038F0B3FD02247848006813F048F9F3
:104E300020463FB0BDE8F0837448006813F040F9A5
:104E400082A038F0A3FD01242046F2E72DE9F041CD
:104E500005460C46601E642100FB01F764233A46B8
:104E600063492846FFF7A7FF06463046BDE8F081B4
:104E70002DE9F04705460E46174699461322294666
:104E80006248006812F02FFE8046B8F1000F2FD163
:104E90005FA038F07BFD39465C48006813F022F9CA
:104EA0008046B8F1000F10D158480168304614F020
:104EB00044FB401C20B16BA038F068FD002408E0E2
:104EC0006FA038F063FD032403E05BA038F05EFDC3
:104ED00002244E48006813F0F3F80A204349888002
:104EE00000BF424880880028FBD12046BDE8F087FB
:104EF00056A038F04BFD01244448006813F0E0F858
:104F00002046F3E7F0B59BB005460C46601E6421D1
:104F100000FB01F76422364901A837F04DFD00205F
:104F20008DF8680064233A4601A92846FFF7A0FFE0
:104F3000064630461BB0F0BD10B59AB0554901A8E1
:104F400037F05BFD01A813F012FD0446002C30D1B0
:104F500051A038F01BFD4F4813F0FBFB044614B979
:104F600051A038F013FD584813F0F3FB044614B970
:104F700056A038F00BFD17225E492448006812F055
:104F8000B2FD04468CB95CA038F000FD00211F483A
:104F9000006813F0A7F8044614B95EA038F0F6FCD8
:104FA0001A48006813F08CF806E062A038F0EEFCB6
:104FB00002E067A038F0EAFC20461AB010BD10B538
:104FC0009AB0674901A837F018FD01A813F0CFFC8B
:104FD0000446002C09D130A038F0D8FC604813F00A
:104FE000B8FB044604B9BDE0BFE0E4E0882B002034
:104FF000BA2C00202020200020000000823C00204D
:105000002F0000002E747874000000006C00002057
:105010000D0A206F70656E2066696C65204F4B0D20
:105020000A00000072656164206461746120657229
:10503000726F72210D0A0000665F6C7365656B20EC
:105040006572726F7221320D0A0000000D0A206F26
:1050500070656E2066696C65204552524F520D0A8C
:105060000000000057524954452046494C452073E2
:1050700075636365737366756C210D0A000000002B
:1050800057524954452046494C45205245454F52B8
:10509000210D0A00B7F60708C9BEB3FDCEC4BCFE99
:1050A000BCD0B3C9B9A60000B4B4BDA8CEC4BCFE80
:1050B000BCD0A3BA594C42333333302F576F726B85
:1050C00020B3C9B9A60D0A00C7F60708B4B4BDA835
:1050D000CEC4BCFEBCD0A3BA594C42333333302FBC
:1050E000576F726B2F576F726B303020B3C9B9A6F0
:1050F0000D0A0000DEF60708B4B4BDA8576F726B46
:105100002D6C696E6B2E747874CEC4BCFEB3C9B9B5
:10511000A60D0A00B6A8CEBB576F726B2D6C696ED8
:105120006B2E747874CEC4BCFEBFAACDB7B3C9B918
:10513000A60D0A00B4B4BDA8576F726B2D6C696ED2
:105140006B2E747874CEC4BCFECAA7B0DC0D0A0006
:10515000C9BEB3FDCEC4BCFEBCD0B4EDCEF30000DE
:1051600062F60708D6A038F011FCDD4813F0F1FA1A
:10517000044614B9DBA038F009FC1722E349E448DF
:10518000006812F0B0FC04468CB9E2A038F0FEFBD7
:105190000021DF48006812F0A5FF044614B9E4A01E
:1051A00038F0F4FBDA48006812F08AFF07E0E8A064
:1051B00038F0ECFB03E0AFF2680038F0E7FB204684
:1051C0001AB010BD10B59AB0E84901A837F015FC27
:1051D00001A813F0CCFB0446002C31D1AFF24810EB
:1051E00038F0D4FBE14813F0B4FA044614B9E0A057
:1051F00038F0CCFBE64813F0ACFA044614B9E5A04D
:1052000038F0C4FB1722ED49C148006812F06BFC6E
:1052100004468CB9EAA038F0B9FB0021BC4800680C
:1052200012F060FF044614B9ECA038F0AFFBB848A8
:10523000006812F045FF07E0F0A038F0A7FB03E09C
:10524000AFF2F40038F0A2FB20461AB010BD10B542
:105250009AB0F14901A837F0D0FB01A813F087FB01
:105260000446002C31D1AFF2D01038F08FFBEA4861
:1052700013F06FFA044614B9E8A038F087FBEF4842
:1052800013F067FA044614B9EDA038F07FFB17223B
:10529000F5499F48006812F026FC04468CB9F3A03B
:1052A00038F074FB00219A48006812F01BFF044696
:1052B00014B9F5A038F06AFB9548006812F000FFB9
:1052C00007E0F9A038F062FB03E0AFF27C1038F0A1
:1052D0005DFB20461AB010BD70B50446204613F0A1
:1052E000D7F90546284670BD30B5ADF5137D0446A7
:1052F0004FF4827141A837F048FB4FF48271684641
:1053000037F043FBFF208990CDF820D221468AA8B0
:1053100013F02FF8054638E00DF2112037F058FB56
:1053200000B939E0E7A10DF2112037F058FB00B9C0
:105330002BE0E5A10DF2112037F051FB00B924E07C
:105340004FF4827141A837F020FB8898007808B1AB
:10535000889801E00DF2112003462246DBA141A806
:1053600038F024FB9DF8100200F0100020B141A895
:10537000FFF7BAFF054607E041A813F089F9054693
:1053800041A9D4A038F002FB00BF2DB982A98AA898
:1053900013F03EF80028BFD000BF1DB9204613F01F
:1053A00077F9054628460DF5137D30BD10B59AB046
:1053B000CA4901A837F021FB01A813F0D8FA044626
:1053C000C7A038F0E3FA1CB9C9A038F0DFFA02E050
:1053D000CCA038F0DBFA20461AB010BD10B5BF499A
:1053E000CD4812F0C6FF30B9CB4813F006F8CBA079
:1053F00038F0CCFA31E2B94813F0ABF9044614B9ED
:10540000C9A038F0C3FA594813F0A3F9044614B9F7
:1054100057A038F0BBFACA4813F09BF9044614B9F8
:1054200027A038F0B3FAC74813F093F904461CB923
:10543000AFF28C3038F0AAFA774813F08AF90446B4
:1054400014B9C1A038F0A2FA514813F082F9044609
:1054500014B950A038F09AFA214813F07AF90446AA
:1054600014B920A038F092FABF4813F072F904463C
:105470001CB9AFF2A83038F089FA704813F069F916
:10548000044614B9B9A038F081FA17224B492048D4
:10549000006812F028FB04468CB949A038F076FA6F
:1054A00000211B48006812F01DFE044614B94BA0F1
:1054B00038F06CFA1648006812F002FE6EE169E1FD
:1054C000B4B4BDA8CEC4BCFEBCD0A3BA594C4233C0
:1054D0003333302F47617320B3C9B9A60D0A0000DA
:1054E00071F60708B4B4BDA8CEC4BCFEBCD0A3BA44
:1054F000594C42333333302F4761732F4761733038
:105500003020B3C9B9A60D0A0000000086F60708CE
:105510006C000020B4B4BDA84761732D6C696E6B3C
:105520002E747874CEC4BCFEB3C9B9A60D0A0000AF
:10553000B6A8CEBB4761732D6C696E6B2E74787400
:10554000CEC4BCFEBFAACDB7B3C9B9A60D0A000030
:10555000B4B4BDA84761732D6C696E6B2E747874FA
:10556000CEC4BCFECAA7B0DC0D0A000022F60708B4
:10557000B4B4BDA8CEC4BCFEBCD0A3BA594C42330F
:105580003333302F4475737420B3C9B9A60D0A00A4
:1055900032F60708B4B4BDA8CEC4BCFEBCD0A3BAD2
:1055A000594C42333333302F447573742F44757321
:1055B00074303020B3C9B9A60D0A000049F60708B7
:1055C000B4B4BDA8447573742D6C696E6B2E747879
:1055D00074CEC4BCFEB3C9B9A60D0A00B6A8CEBB32
:1055E000447573742D6C696E6B2E747874CEC4BC64
:1055F000FEBFAACDB7B3C9B9A60D0A00B4B4BDA801
:10560000447573742D6C696E6B2E747874CEC4BC43
:10561000FECAA7B0DC0D0A00F7F60708B4B4BDA8AF
:10562000CEC4BCFEBCD0A3BA594C42333333302F66
:10563000666C756520B3C9B9A60D0A0007F707089F
:10564000B4B4BDA8CEC4BCFEBCD0A3BA594C42333E
:105650003333302F466C75652F466C7565303020BE
:10566000B3C9B9A60D0A00001EF70708B4B4BDA857
:10567000466C75652D6C696E6B2E747874CEC4BCE7
:10568000FEB3C9B9A60D0A00B6A8CEBB466C7565B7
:105690002D6C696E6B2E747874CEC4BCFEBFAACD1F
:1056A000B7B3C9B9A60D0A00B4B4BDA8466C7565F8
:1056B0002D6C696E6B2E747874CEC4BCFECAA7B014
:1056C000DC0D0A002E0000002E2E000025732F2571
:1056D000730000000D0A25730000000018F607088B
:1056E0000D0AC9BEB3FDB8F9C4BFC2BC00000000BA
:1056F0000D0AC9BEB3FDB8F9C4BFC2BCB3C9B9A6CF
:10570000000000000D0AC9BEB3FDB8F9C4BFC2BC99
:10571000CAA7B0DC00000000F8F50020C4BFC2BC7E
:10572000B4E6D4DA0D0A0000B4B4BDA8B8F9C4BF19
:10573000C2BC594C4233333330B3C9B9A60D0A0049
:1057400062F60708B7F60708B4B4BDA8CEC4BCFE1D
:10575000BCD0A3BA594C42333333302F466C7565F5
:1057600020B3C9B9A60D0A00C7F60708B4B4BDA88E
:10577000CEC4BCFEBCD0A3BA594C42333333302F15
:10578000576F726B2F466C7565303020B3C9B9A660
:105790000D0A0000AFF29C1038F0F8F81722FE490D
:1057A000FE48006812F09FF9044694B9FCA038F056
:1057B000EDF80021F948006812F094FC04461CB989
:1057C000AFF2942038F0E2F8F448006812F078FC68
:1057D00003E0AFF2842038F0D9F81722F649EF48F9
:1057E000006812F080F904469CB9AFF2F46038F01A
:1057F000CDF80021E948006812F074FC04461CB999
:10580000AFF2F06038F0C2F8E448006812F058FCDB
:1058100003E0AFF2E06038F0B9F81722E749DF485B
:10582000006812F060F904469CB9AFF2C01038F07D
:10583000ADF80021D948006812F054FC04461CB9A8
:10584000AFF2BC1038F0A2F8D448006812F038FC6F
:1058500003E0AFF2207038F099F810BD10B50020C9
:1058600010F02FFCD6A038F091F8002408E001F0E9
:105870000DFE00B106E00A2009F04AFA601CC4B22D
:105880000A2CF4DD00BF4FF4FA7009F041FA14F06D
:1058900025F8D04901220868CFA112F0F9F8CD49C6
:1058A00001228868CDA112F0F3F801F09FFC007886
:1058B00008B1FFF793FD10BD70472DE9F04706468C
:1058C0000D46174601223146B448006812F00BF924
:1058D0008046B8F1000F2AD1AFF6CC0038F056F868
:1058E0000021AE48006812F0FDFB8046B8F1000FC1
:1058F00013D1BBA038F04AF8A8480068C06810B9B6
:105900000020286007E0A5480068D0F80C90B9FB9B
:10591000F7F9C5F80090002404E0AFF6E40038F091
:1059200035F802249D48006812F0CAFB04E0AFF687
:10593000E40038F02BF801242046BDE8F08710B5CC
:105940006422AD499448FFF7B8FF0446204610BDD5
:1059500010B56422A8490C319848FFF7AEFF044601
:10596000204610BD10B56422A3490831A348FFF7B3
:10597000A4FF0446204610BD10B564229E49091DAF
:105980008D48FFF79AFF0446204610BD2DE9F041EF
:10599000B4B00646324601A99948FFF7EAF9012258
:1059A00001A97E48006812F09EF80746002F30D10A
:1059B000AFF6A41037F0EAFF4FF452752946774846
:1059C000006812F08FFB0746CFB985A037F0DEFFE5
:1059D00072480068C068A8420BD370480068C0686D
:1059E000A0EB0508C820B8FBF0F88648C0F8BC83D7
:1059F00003E000218348C0F8BC13002404E0AFF6A4
:105A0000C81037F0C3FF02246448006812F058FB46
:105A100004E0AFF6C81037F0B9FF0124204634B0D7
:105A2000BDE8F081F0B5CDB007463A4640A97648CA
:105A3000FFF79FF9012240A95848006812F053F877
:105A40000446002C77D1AFF6382037F09FFF0021B5
:105A50005248006812F046FB04460026002C60D134
:105A60006AA037F093FF4D48FA21026801A813F0AD
:105A7000F9FC4A4800688068801B1E2808D11E2255
:105A800001A9674836F098FF44480068866803E03B
:105A900064A037F07BFF0124D4B94048FA210268A2
:105AA00001A813F0DFFC3D4800688068801B3C289B
:105AB0000AD13C2201A95A481E3036F07DFF3748F2
:105AC00000688668002403E05BA037F05FFF0124D4
:105AD000002C2AD1002521E03048FA21026801A8D3
