:020000040804EE
:1000000068480120F93B0508B9050408BB05040848
:10001000C5050408C9050408CD0504080000000052
:10002000000000000000000000000000D1050408EE
:10003000D3050408000000000F3C0508DF03040896
:10004000133C0508133C0508133C0508133C050840
:10005000133C0508133C0508133C0508133C050830
:10006000133C0508133C0508133C0508133C050820
:10007000133C0508133C0508133C0508133C050810
:10008000133C0508133C0508133C0508133C050800
:10009000133C0508133C0508133C0508133C0508F0
:1000A000133C0508133C0508133C0508133C0508E0
:1000B000133C0508133C0508133C0508133C0508D0
:1000C000133C0508133C0508133C0508133C0508C0
:1000D000133C0508810C0408C70C0408AF0D040884
:1000E000133C0508133C0508133C0508133C0508A0
:1000F000133C0508133C0508133C0508133C050890
:10010000133C0508133C0508133C0508133C05087F
:10011000270F0408C30F0408133C0508133C050807
:10012000133C0508133C0508133C0508133C05085F
:10013000133C0508133C0508133C0508133C05084F
:10014000133C0508133C0508133C05084D940508AD
:10015000133C0508133C0508133C0508133C05082F
:10016000133C0508133C0508133C0508133C05081F
:10017000133C0508133C0508133C0508133C05080F
:10018000133C0508133C0508DFF80CD036F0BEFB25
:1001900000480047E10104086848012010B510F04C
:1001A000D3FA1CF034FC0DF01FFC00F061FC04F0ED
:1001B00073F809F00CF802F074FF0DF072F809F012
:1001C0007DFA0FF0C9FF03F0CAFE01F057FB35F0CE
:1001D000B5FC0EF0FBFB10F07BFD13F0C4FA10BD74
:1001E00005480649086013F0B3FD00F051F800BF60
:1001F000FFF7D4FFFCE700000000040808ED00E072
:1002000010B5044645F2555013F0A4FA032013F03C
:10021000A4FA022C00D2022440F6CC40844200D939
:10022000044640F2E24060434FF47A71B0FBF1F0D3
:10023000441EA0B213F094FA13F095FA10BD70B5F5
:100240009149481EB0F1807F01D301201BE0481E78
:100250004FF0E022506150170F22002807DA1307F1
:100260001D0E8A4B00F00F04241F1D5503E01307D9
:100270001C0E874B1C5400BF00204FF0E022906101
:1002800007201061002010B182A036F025FE70BD5D
:100290001FB5684612F0AFFA4FF4A06010F06CFF83
:1002A000FFF7CDFF00F070FB0DF094FC10F0B5F9F6
:1002B00000F0D6FF62B67DA036F00EFE7F480368E0
:1002C000001F0268001F01687DA036F005FE7B4814
:1002D0000A30018888A036F0FFFD8EA0009936F024
:1002E000FBFD92A0019936F0F7FD96A0029936F039
:1002F000F3FD9AA0039936F0EFFD40F2FE419DA078
:1003000036F0EAFD41F2B431A1A036F0E5FD40F649
:10031000B830FFF775FF1CF054FE0DF08AFB04F0B7
:1003200029FA0DF057FC0FF061FB64200DF06CFC16
:1003300002F060F903F067F805F003F806F0BDFF7E
:1003400009F0ADF80FF005FE0CF02DFD0EF0B0FB3E
:1003500003F0FAFE10F039FA0DF0F5FB10F0FAFD9B
:100360001FBD10B59148408920B190484089401E7A
:100370008E4948818D480089401C8C49088100F0D5
:1003800001FC03F0D5F81CF0B5FB09F050F90FF0B3
:10039000A8FE0CF00DFD03F080FF03F0C9F804F097
:1003A00033FA06F098FF0DF034FB0DF07AFB0FF0F6
:1003B00014FB10F0EEF810F070FE10BD10B51CF03C
:1003C000BAFD0EF0E4FC1CF010FC10BD00207749D3
:1003D000087048704860488170477448704710B58D
:1003E000FFF7BFFF10BD1CB50121022012F0D4FAA7
:1003F0000121022012F0D0FA02208DF80500012020
:100400008DF8040000208DF8060001208DF807000B
:10041000022000906946664811F0CEF90420009051
:100420006946634811F0C8F90221614811F042FAA7
:1004300004215F4811F03CFA1CBD70B504460E461D
:100440000321204601F008F80546012D02D0022DB7
:1004500018D114E002F039F900BFBFF34F8F0B48F9
:100460000C38006800F4E06052490843001D074959
:100470000C390860BFF34F8F00BF00BFFEE7FFF7E6
:10048000A5FF00BF00BF70BD4090020018ED00E066
:1004900000E400E05379737469636BB6A8CAB1C60F
:1004A000F7C6F4B6AFCAA7B0DC0D0A00CFB5CDB31E
:1004B000D6D8C6F4C1CB210D0A000000187AFF1F60
:1004C000B2FAC6B7CEA8D2BBC9EDB7DDB1EACAB69B
:1004D00028556E69717565204465766963652049A4
:1004E0004429CEAAA3BA5B25582D25582D25585D41
:1004F000A3A10D0A00000000B8C3D0BEC6AC524F85
:100500004DCEAAA3BA5B25754B625DA3A10D0A0D62
:100510000A000000535953434C4B5F467265717596
:10052000656E63793D2575210D0A000048434C4BEB
:100530005F4672657175656E63793D2575210D0A9B
:100540000000000050434C4B315F46726571756589
:100550006E63793D2575210D0A00000050434C4B18
:10056000325F4672657175656E63793D2575210D43
:100570000A0D0A0055534152545F4461746153742B
:10058000727563747572653D2575210D0A0D0A003B
:10059000536C6176655F4461746153747275637402
:1005A0007572653D2575210D0A0D0A006402002053
:1005B000000402400000FA05704706A036F08CFCEB
:1005C00000BFFEE700BFFEE700BFFEE700BFFEE79B
:1005D00070477047D3B2BCFED2ECB3A30D0A000043
:1005E00000B587B00121042012F0D6F901210820BE
:1005F00012F0D2F90121080512F017FA082202219F
:10060000FD4811F064F908220C21FC4811F05FF953
:1006100002208DF809008DF8080001208DF80B00EC
:1006200000208DF80A004FF48050019001A9F34892
:1006300011F0C2F80420019002208DF8080001A9F1
:10064000ED4811F0B9F84FF4165003900020ADF8C2
:100650001000ADF81200ADF81400ADF818000C2031
:10066000ADF8160003A9E64810F05DFE012240F245
:100670002551E34810F095FF0121E14810F0DBFE21
:1006800035208DF8000000208DF801008DF8020063
:1006900001208DF80300684610F073FD07B000BD1F
:1006A00000B587B00121042012F076F90121C804B9
:1006B00012F0BBF908220A21D04811F008F90822EB
:1006C0000B21CE4811F003F902208DF809008DF8B6
:1006D000080001208DF80B0000208DF80A004FF46F
:1006E0008060019001A9C54811F066F84FF40060E0
:1006F000019002208DF8080001A9C04811F05CF8B3
:100700004FF4165003900020ADF81000ADF8120021
:10071000ADF81400ADF818000C20ADF8160003A9D0
:10072000B84810F000FE012240F22551B54810F003
:1007300038FF0121B34810F07EFE34208DF8000010
:1007400000208DF801008DF8020001208DF80300D3
:10075000684610F016FD07B000BD00B587B0012156
:10076000022012F019F90121880412F05EF9072223
:100770000A21A54811F0ABF807220B21A24811F07D
:10078000A6F802208DF809008DF8080001208DF8E8
:100790000B0000208DF80A004FF48060019001A941
:1007A000994811F009F84FF40060019002208DF88B
:1007B000080001A9944810F0FFFF4FF4E1300390C6
:1007C0000020ADF81000ADF81200ADF81400ADF83F
:1007D00018000C20ADF8160003A98C4810F0A3FDFA
:1007E000012240F22551894810F0DBFE01218748A3
:1007F00010F021FE27208DF8000000208DF8010068
:100800008DF8020001208DF80300684610F0B9FC55
:1008100007B000BD00B587B00121084612F0BCF852
:100820000121480412F001F907220221784811F051
:100830004EF807220321764811F049F802208DF87E
:1008400009008DF8080001208DF80B0000208DF8BC
:100850000A000420019001A96D4810F0ADFF0820A6
:10086000019002208DF8080001A9694810F0A4FF4A
:100870004FF4E13003900020ADF81000ADF8120005
:10088000ADF81400ADF818000C20ADF8160003A95F
:10089000604810F048FD012240F225515D4810F0FB
:1008A00080FE01215B4810F0C6FD26208DF8000077
:1008B00000208DF8010002208DF8020001208DF843
:1008C0000300684610F05DFC07B000BD00B587B0BE
:1008D0000121084612F060F80121102012F0B6F84C
:1008E000072209214A4810F0F2FF07220A2148484E
:1008F00010F0EDFF02208DF809008DF808000120AE
:100900008DF80B0000208DF80A004FF40070019064
:1009100001A93F4810F050FF4FF480600190022081
:100920008DF8080001A93A4810F046FF4FF4E13075
:1009300003900020ADF81000ADF81200ADF81400DF
:10094000ADF818000C20ADF8160003A9324810F0DD
:10095000EAFC25208DF8000000208DF8010002201F
:100960008DF8020001208DF80300684610F009FCA4
:10097000012240F22551284810F013FE012126489B
:1009800010F059FD07B000BD10B5FFF79FFFFFF74E
:1009900041FFFFF7E2FEFFF783FEFFF721FE10BDE8
:1009A0001E4870472DE9F04707460D4695F8F504B7
:1009B00000F00400002859D02C4695F8F38095F8F3
:1009C000F50420F0040085F8F504002095F8F310F4
:1009D00060541148874241D100BF20783A283DD168
:1009E00020783A283AD1B8F1080F37DD0726A1461A
:1009F000E41D00BF2EE00000000C02400008024091
:100A000000500040004C00400004024000480040FC
:100A1000000002400044004000100140700200202D
:100A200020780D2813D160780A2811D1701FC1B227
:100A300009F1050000F052FCB01CC6B2464505DACB
:100A4000A41CA8EB060000F0FF08C6E704E0641C45
:100A5000701CC6B24645E3DB00BF00BF002085F82E
:100A6000F300B88940F00400B88100BFBDE8F0870A
:100A700010B5FFF795FF04462146FE48FFF792FFA9
:100A800010BD70B505460C4694F8F400002816DD3C
:100A900014F8F40F401E207014F8F40990B90022E5
:100AA00040F22551284610F07CFD002084F8F50422
:100AB000012240F22551284610F073FD02E000208B
:100AC00084F8F50470BDEC487047EC48704791F825
:100AD000F52402F00402BAB111F8F42F521C0A7086
:100AE00011F8F429642A4CD1002281F8F42081F80D
:100AF000F32091F8F52422F0070281F8F524828989
:100B000042F0040282813CE091F8F52402F00202F6
:100B1000BAB111F8F42F521C0A7011F8F4290A2AFC
:100B20002FD1002281F8F42081F8F32091F8F524E8
:100B300022F0070281F8F524828942F004028281C2
:100B40001FE091F8F52402F00102D2B111F8F42F60
:100B5000521C0A7011F8F429042A12D1002281F8DB
:100B6000F42091F8F52422F0010281F8F52491F89F
:100B7000F52442F0040281F8F524828922F004026F
:100B80008281704710B5FFF70BFF03461946B9483D
:100B9000FFF79DFFFFF799FF04462146B848FFF78E
:100BA00070FFFFF790FF04462146B648FFF769FF44
:100BB00010BD70B505460C46B4F8F60428B3B4F879
:100BC000F824501CA4F8F80404F1F500815C2846D0
:100BD00010F05CFCB4F8F804B0F5806F02D100208E
:100BE000A4F8F804B4F8F604401EA4F8F604B4F827
:100BF000F604A0B9002240F22771284610F0D1FC7B
:100C00008021284610F0FFFC09E0002240F2277105
:100C1000284610F0C6FC8021284610F0F4FC70BD78
:100C200010B511F8F34F0B785B1C01F8F3390A5536
:100C3000002381F8F43091F8F3304F2B05D091F870
:100C4000F53403F00203012B13D1002381F8F330B4
:100C500091F8F53423F0010381F8F53491F8F53477
:100C600043F0020381F8F534838923F00403838180
:100C700005E091F8F53443F0010381F8F53410BD37
:100C800010B540F225517B4810F0C6FC30B17948D0
:100C90008088C2B27C497748FFF7C2FF40F22771D3
:100CA000744810F0B9FC18B177497248FFF781FF1A
:100CB00010BD00BF6F49098801F040010029F9D03B
:100CC0006C498880704710B540F225516C4810F08F
:100CD000A3FC002860D06A4810F0DCFBC4B267486F
:100CE00090F8F50448B9AA2C56D10120634981F83F
:100CF000F5041E2081F8F4004EE0604890F8F504F9
:100D0000012818D1502C11DA5C4880F8F3400220F9
:100D10005A4981F8F504002081F8F200084690F85D
:100D2000F2000C54012081F8F20035E00020534914
:100D300081F8F50430E0514890F8F504022827D1F5
:100D40004E4890F8F2004D490C54084690F8F200D5
:100D5000401C81F8F200084690F8F20091F8F31078
:100D6000884219DD002409E04448015D50300155F6
:100D70000120424981F8F000601CC4B23F4890F85D
:100D8000F300A042F0DA00203C4981F8F40003E0CF
:100D900000203A4981F8F50440F22771384810F0F4
:100DA0003BFC18B135493648FFF703FF10BD10B5BD
:100DB00040F22551334810F02FFC002810D0314864
:100DC00010F068FBC4B22C4890F8F50448B95A2CCE
:100DD00006D10120284981F8F5041E2081F8F4008D
:100DE00082E0254890F8F50401280BD1A52C04D108
:100DF0000220214981F8F50476E000201E4981F89F
:100E0000F50471E01C4890F8F504022818D1322C42
:100E100011DA194880F8F3400320174981F8F504E6
:100E2000002081F8F200084690F8F2000C540120EE
:100E300081F8F20058E000200F4981F8F50453E0F2
:100E40000D4890F8F50403284AD10B4890F8F200B9
:100E500009490C54084690F8F200401C81F8F20051
:100E6000084690F8F20091F8F31088423CDD024801
:100E700040780BE0001001406C0C00206E07002051
:100E8000004400400048004070020020812811D139
:100E9000002409E0D848015D503001550120D649B1
:100EA00081F8F000601CC4B2D34890F8F300A0426F
:100EB000F0DA10E0002409E0CF48015DA0300155D0
:100EC0000120CD4981F8F100601CC4B2CA4890F8F5
:100ED000F300A042F0DA0020C74981F8F40003E0F3
:100EE0000020C54981F8F50440F22771C34810F08D
:100EF00093FB18B1C049C148FFF75BFE10BDC04865
:100F000070470120BE49087070470020BC49087036
:100F10007047BB4A917010710022B94B5A70DA7059
:100F200001221A70704710B540F22551B54810F0F3
:100F300073FB002830D0B34810F0ACFAC4B2B0480C
:100F4000007848B3AE48007998B1AD48C178401DEB
:100F50004454401FC078401CA949C8700846C07856
:100F60008978884218DB0020A54908700120487064
:100F700012E0A348C178401D4454401FC078401C73
:100F80009F49C8700846C0788978884204DB0020F1
:100F90009B4908700120487010BD9B487047012094
:100FA0009949087070470020974908707047964A21
:100FB000917010710022944B5A70DA7001221A70ED
:100FC000704710B540F22551904810F025FB0028DD
:100FD00030D08E4810F05EFAC4B28B48007848B327
:100FE0008948007998B18848C178401D4454401F11
:100FF000C078401C8449C8700846C0788978884207
:1010000018DB0020804908700120487012E07E48FB
:10101000C178401D4454401FC078401C7A49C870B4
:101020000846C0788978884204DB00207649087039
:101030000120487010BD70B506460C46154605E007
:10104000012240F22771304610F0ABFAB4F8F604F2
:1010500040F2FF318842F3D0B4F8FA14481CA4F8E7
:10106000FA0404F1F5004554B4F8FA04B0F5806FC1
:1010700002D10020A4F8FA04002240F22771304681
:1010800010F08FFAB4F8F604401CA4F8F60401221C
:1010900040F22771304610F084FA70BD70B50446F6
:1010A0000D465B48844203D15AA035F015FF1AE083
:1010B0005A48844203D15AA035F00EFF13E04F483E
:1010C000844203D158A035F007FF0CE04D4884421C
:1010D00003D157A035F000FF05E04C48844202D10F
:1010E00055A035F0F9FE012D02D0022D08D103E004
:1010F00053A035F0F1FE03E055A035F0EDFE00BF42
:1011000000BF70BD1FB54FF4165000904FF48050D3
:10111000ADF804000020ADF806004FF48060ADF893
:1011200008000020ADF80C000C20ADF80A0069465C
:10113000324810F0F8F81FBD1FB54FF4165000905C
:101140000020ADF80400ADF80600ADF80800ADF8D9
:101150000C000C20ADF80A006946284810F0E3F8AE
:101160001FBD2DE9FF4107460E4614461D460021CE
:10117000384610F060F90096312D03D10020ADF80B
:1011800006000AE0322D04D14FF40050ADF80600FD
:1011900003E04FF44050ADF80600452C01D0652C1B
:1011A00007D14FF48060ADF808008000ADF804006E
:1011B00011E04F2C01D06F2C08D14FF4C060ADF876
:1011C00008004FF48050ADF8040004E00020ADF8B2
:1011D0000800ADF804000020ADF80C000C20ADF8BC
:1011E0000A006946384610F09EF80121384610F092
:1011F00022F9BDE8FF8100006C0C0020004800408F
:101200006A110020004C0040D31100200050004023
:101210000010014055534152543100000044004039
:10122000555341525432000055534152543300003B
:1012300055415254340000005541525435000000CD
:10124000BDD3CAD5B4A6C0EDB3ACCAB10D0A000077
:10125000D2E7B3F6BDD3CAD50D0A00001B487047CC
:1012600001201A490870704770B504460E461748A9
:101270000078062826D2DFE800F025030C0D0E1AB0
:10128000FFF78EFB0546E2B229461148FFF7D3FE71
:1012900019E018E017E000BF0E48008800F0400099
:1012A0000028F9D0E0B20B49091D08800BE000BF0F
:1012B0000948008800F040000028F9D0E0B2064953
:1012C000888000E000BF00BF204670BD0000002005
:1012D00000100140004C00400050004070B5044632
:1012E0000D460221204600F0B7F80646072E3BD0F7
:1012F00007DC072E62D2DFE806F06113191F252BE9
:1013000031000B2E4ED006DC082E33D0092E37D0FC
:101310000A2E53D140E00C2E4AD05A2E4ED135E041
:10132000E81EC1B2E01C01F0F6F94CE0E81EC1B2C3
:10133000E01C1BF0A1FE46E0E81EC1B2E01C05F077
:101340002EFA40E0E81EC1B2E01C0EF021FA3AE0AD
:10135000E81EC1B2E01C0BF0AAFF34E0E81EC1B2E7
:10136000E01C03F012FA2EE0E81EC1B2E01C02F00D
:10137000F4FE28E0E81EC1B2E01C02F0F1F922E020
:10138000E81EC1B2E01C07F065FF1CE0E81EC1B218
:10139000E01CFFF752F816E0E81EC1B2E01C0EF0A8
:1013A000F7F910E0E81EC1B2E01C08F016FB0AE0F5
:1013B000E81EC1B2E01C0FF05FF804E0314603A064
:1013C00035F08AFD00BF00BF70BD000041534349A6
:1013D000492E63BDD3CAD5B5BDCEDED0A7B5F7CAF9
:1013E000D4D6B8C1EE2575210D0A000070B50246AD
:1013F0000C46FF25FF2309E012F8010B80EA0501E6
:10140000FA48405C80EA0305F948435C201EA4F1D9
:101410000106B4B2F0D143EA052070BDF0B5044630
:101420002578641C032D15DBA81E81B22046FFF72A
:10143000DDFF0646A81E275C4FF6FF7000EA07276F
:10144000681E205C384487B2B74201D10120F0BD4C
:101450000020FCE70020FAE77CB504460E46002099
:1014600000900190002505E014F8010B0DF805002F
:10147000681CC5B2B542F7DB684634F068FD80B23F
:101480007CBD2DE9FE430646884600200090019071
:101490000290002705E016F8010B0DF80700781CF4
:1014A000C7B24745F7DB684634F05EFD04460D469B
:1014B0000022D4F1FF30AA4101DA4FF0FF34204678
:1014C000BDE8FE830146002001F001020AB140F0B0
:1014D000800001F002020AB140F0400001F0040275
:1014E0000AB140F0200001F008020AB140F01000FB
:1014F00001F010020AB140F0080001F020020AB128
:1015000040F0040001F040020AB140F0020001F096
:1015100080020AB140F00100704730B502460B4628
:101520004FF6FF70002112E0555C684000240AE08D
:1015300000F0010525B148F2084585EA600000E0A9
:101540004010651CECB2082CF2DB4D1CE9B299424C
:10155000EADB30BD7FB504460E46002000900190C6
:1015600002900390002505E014F8010B0DF805002A
:10157000681CC5B2B542F7DB684635F001FD7FBD9A
:101580000178C2780270C1704178827842708170AF
:10159000704790ED000AF8EE400A9FED961A81EE32
:1015A000200ADFED950A20EE200ABCEEC00A80ED8D
:1015B000000A7047018E03EE901AF8EE633A90ED40
:1015C000034AF4EEC43AF1EE10FA00D27047D0EDBF
:1015D000003A90ED014A73EEC43AC0ED063AD0ED00
:1015E000023A90ED064A63EE841AD0ED083A90ED87
:1015F000064A73EE843AC0ED083AD0ED033AD0EDD6
:10160000044A83EEA44AD0ED023A24EE231AD0ED28
:10161000083A63EE812AD0ED063A90ED074A73EE60
:10162000C40AD0ED053A90ED034AC3EE844AD0EDEA
:10163000023A24EEA33A23EE202A71EEA23A73EE88
:10164000823A90ED094A33EE840AD0ED0B3AF4EE7B
:10165000C03AF1EE10FA04D2D0ED0B3AB0EE630AC4
:1016600008E0B5EEC00AF1EE10FA03D2DFED633AFE
:10167000B0EE630A80ED0A0AD0ED063AC0ED073AF3
:101680000021018600BFA1E7F0EE400AB0EE600A3B
:10169000F0EE081AB0EE611ADFED591A81EE212A38
:1016A000B0EE421A01EE900AF8EE611A61EE811A6C
:1016B000B0EE611AC0EE011AB0EE610A7047F0EEAA
:1016C000400AB0EE081AB0EE410A9FED4D1AC0EE86
:1016D000011AB0EE610A01EE100AB8EE411A21EECD
:1016E000001AB0EE410A20EE801AB0EE410A7047AF
:1016F00010B52DED048BF0EE408A0446B0EE688AFA
:10170000B0EE080AB0EE409A9FED3D0AC9EE000A1D
:10171000B0EE609A00EE104AB8EE400A20EE090AD8
:10172000B0EE409AB7EE000AB0EE408A38EE680A92
:10173000C8EE000AB0EE608AB0EE480A35F050FDFF
:10174000B0EE408A89EE080AB0EE408AB0EE480A50
:10175000BDEC048B10BD10B52DED048BF0EE408A6E
:101760000446B0EE080AB0EE408A9FED250AC8EEA6
:10177000000AB0EE608A00EE104AB8EE400A20EE91
:10178000080AB0EE408A88EE280AB0EE408AB0EE31
:10179000480A35F027FCB0EE408AB7EE000AB0EEFA
:1017A000409A89EE080AB0EE408AB7EE000AB0EE21
:1017B000409A39EE480AB0EE408AB0EE480ABDECD5
:1017C000048B10BD2DE9F0412DED028B04460F4630
:1017D00003212046FFF740FE0546062D28D2DFE80C
:1017E00005F027031112131427E00000968B070859
:1017F000968C0708286B6E4E0050C347000000000F
:101800000000804519E018E017E00221201DFFF7D5
:1018100023FEC6B23146E01DFFF79CFEB0EE408AC3
:10182000F0EE608A53EC182B06A035F055FB04E06F
:10183000294609A035F050FB00BF00BFBDEC028B6C
:10184000BDE8F081D7AABBBBBAF3B5C4CAFDBEDD03
:10185000CEAA25660D0A000043616C63756C617445
:10186000655F4465627567CEDEB4CBB5F7CAD4C395
:10187000FCC1EE2575210D0A0000000010B5FE48E0
:10188000807810B1012810D10BE0FB48007838B106
:101890000EF002F90020F8490870F8A035F01CFBA2
:1018A00003E00020F449887000BF00BF10BD10B5F0
:1018B0000EF07CF90020F04908700120887010BDFE
:1018C00010B540F23111A1F16A0291B200200AE094
:1018D00000F16A02E84B1B1D33F81240F43223F882
:1018E0001240421C90B28842F2DB0122E24B1A7095
:1018F00010BD30B58DB0E5A5FF20A876E8760024B0
:1019000006E00021DC48001D20F81410601C84B2A1
:10191000B4F53F7FF5DB9FEDE40A8DED0C0ABDF8D1
:101920003000D5498880BDF83210D348C1800021ED
:1019300001819FEDDE0A8DED0C0ABDF8301041816A
:10194000BDF83210818100240EE015F814106000FB
:10195000401C285C01EB002082B2601DC649091DB5
:1019600021F81020601C84B20F2CEEDB0021C2484D
:10197000C1861E2181850A21C18501860B214186F0
:101980000C21818601210187B7EE000A8DED0C0A3A
:10199000BDF830104187BDF8321081879FEDC40A31
:1019A0008DED0C0ABDF83010C187BDF83210A0F8DB
:1019B0004010B7EE000A8DED0C0ABDF83010A0F80B
:1019C0004210BDF83210A0F844100021A0F84610D3
:1019D0000121A0F84810A0F84A10B7EE000A8DEDDA
:1019E0000C0ABDF83010A0F84C10BDF83210A0F869
:1019F0004E10B7EE000A8DED0C0ABDF83010A0F8BD
:101A00005010BDF83210A0F852100121A0F8541067
:101A1000A0F856109FEDA70A8DED0C0A00240FE0E8
:101A2000BDF8302060002A309349091D21F81020AC
:101A3000BDF8322060002B3021F81020601C84B2E9
:101A40000A2CEDDB01218C48A0F858109FED9A0A72
:101A50008DED0C0ABDF83010A0F85A10BDF8321008
:101A6000A0F85C109FED950A8DED0C0ABDF83010C2
:101A7000A0F85E10BDF83210A0F860101421A0F894
:101A800062101521A0F864100021A0F866109FEDE7
:101A90008C0A8DED0C0ABDF83010A0F86810BDF866
:101AA0003210A0F86A109FED870A8DED0C0ABDF880
:101AB0003010A0F87010BDF83210A0F8721000219C
:101AC000A0F874100A21A0F876100021A0F8781070
:101AD0009FED7D0A8DED0C0ABDF83010A0F87A104C
:101AE000BDF83210A0F87C109FED780A8DED0C0A3D
:101AF000BDF83010A0F87E10BDF83210A0F88010AC
:101B00009FED730A8DED0C0ABDF83010A0F882101D
:101B1000BDF83210A0F884104FF0FF300C90BDF8E3
:101B200030105548A0F88610BDF83210A0F8881083
:101B30004FF0FF300C90BDF830104F48A0F89C10CB
:101B4000BDF83210A0F89E100021A0F88A10B2EE65
:101B5000040A8DED0C0ABDF83010A0F89210BDF803
:101B60003210A0F8941001200C90BDF830104248BB
:101B7000A0F89610BDF83210A0F898109FED550A05
:101B80008DED0C0ABDF83010A0F88C10BDF83210A5
:101B9000A0F88E100021A0F890104FF41671A0F854
:101BA0009A109FED440A8DED0C0ABDF83010A0F894
:101BB000A210BDF83210A0F8A4109FED3E0A8DEDE2
:101BC0000C0ABDF83010A0F8A610BDF83210A0F82D
:101BD000A8100121A0F8AA10B7EE000A8DED0C0A9A
:101BE000BDF83010A0F8AC10BDF83210A0F8AE105F
:101BF000B3EE050A8DED0C0ABDF83010A0F8B01058
:101C0000BDF83210A0F8B210B7EE000A8DED0C0A44
:101C1000BDF83010A0F8B410BDF83210A0F8B6101E
:101C2000B7EE000A8DED0C0ABDF83010A0F8B81020
:101C3000BDF83210A0F8BA10B7EE000A8DED0C0A0C
:101C4000BDF83010A0F8BC10BDF83210A0F8BE10DE
:101C50007B21A0F8C0104FF4E471A0F8C21041F24B
:101C6000CC11A0F8C4100021A0F8C6101B21A0F8C8
:101C7000C810152130E000003C1200200D0AB4E627
:101C8000466C617368B3C9B9A60D0A00B7F0C9BD47
:101C9000D3EEC2A1B2A9BBB7B1A3BFC6BCBCD3D05F
:101CA000CFDEB9ABCBBE00000000CC410000CF427C
:101CB0004CB78242000000001F05F6421F05F442A7
:101CC0003333B24200006042CDCCCC3DCDCC4C3E53
:101CD0009A99993E3D0A573FA0F8CC100A21A0F8E6
:101CE000D0100021A0F8D210B1EE040A8DED0C0A3C
:101CF000BDF83010A0F8D810BDF83210A0F8DA10F6
:101D00009FEDFE0A8DED0C0ABDF83010A0F8DC1036
:101D1000BDF83210A0F8DE10B0EE080A8DED0C0A06
:101D2000BDF83010A0F8E010BDF83210A0F8E210B5
:101D30001FED180A8DED0C0ABDF83010A0F8E41064
:101D4000BDF83210A0F8E6109FEDED0A8DED0C0AFB
:101D5000BDF83010A0F8E810BDF83210A0F8EA1075
:101D6000B7EE0C0A8DED0C0ABDF83010A0F8EC109F
:101D7000BDF83210A0F8EE10B2EE020A8DED0C0A9A
:101D8000BDF83010A0F8F010BDF83210A0F8F21035
:101D90000321A0F8F4103E21A0F8F6107D21A0F850
:101DA000F81040F27711A0F8FA1040F27121A0F873
:101DB000FC104900A0F8FE1040F25371A0F8001189
:101DC00040F6C411A0F8021140F63541A0F8041104
:101DD00040F6A661A0F8061142F21071A0F80811B1
:101DE0000321A0F8F410B6EE000A8DED0C0ABDF840
:101DF0003010A0F80A11BDF83210A0F80C11B6EEA0
:101E0000000A8DED0C0ABDF83010A0F80E11BDF8D7
:101E10003210A0F81011B6EE000A8DED0C0ABDF8D4
:101E20003010A0F81211BDF83210A0F81411B6EE5F
:101E3000000A8DED0C0ABDF83010A0F81611BDF89F
:101E40003210A0F81811B6EE000A8DED0C0ABDF89C
:101E50003010A0F81A11BDF83210A0F81C119FED37
:101E6000A70A8DED0C0ABDF83010A0F81E11BDF8C0
:101E70003210A0F820119FEDA10A8DED0C0ABDF8DB
:101E80003010A0F82211BDF83210A0F824119FEDF7
:101E90009B0A8DED0C0ABDF83010A0F82611BDF894
:101EA0003210A0F828119FED950A8DED0C0ABDF8AF
:101EB0003010A0F82A11BDF83210A0F82C119FEDB7
:101EC0008F0A8DED0C0ABDF83010A0F82E11BDF868
:101ED0003210A0F830110121A0F83211B7EE000A3B
:101EE0008DED0C0ABDF83010A0F83411BDF8321099
:101EF000A0F83611B7EE000A8DED0C0ABDF83010CF
:101F0000A0F83811BDF83210A0F83A11B7EE000A67
:101F10008DED0C0ABDF83010A0F83C11BDF8321060
:101F2000A0F83E11B7EE000A8DED0C0ABDF8301096
:101F3000A0F84011BDF83210A0F84211B7EE000A27
:101F40008DED0C0ABDF83010A0F84411BDF8321028
:101F5000A0F84611B7EE000A8DED0C0ABDF830105E
:101F6000A0F84811BDF83210A0F84A11B7EE000AE7
:101F70008DED0C0ABDF83010A0F84C11BDF83210F0
:101F8000A0F84E11B7EE000A8DED0C0ABDF8301026
:101F9000A0F85011BDF83210A0F85211B7EE000AA7
:101FA0008DED0C0ABDF83010A0F85411BDF83210B8
:101FB000A0F85611B7EE000A8DED0C0ABDF83010EE
:101FC000A0F85811BDF83210A0F85A11B7EE000A67
:101FD0008DED0C0ABDF83010A0F85C11BDF8321080
:101FE000A0F85E11B7EE000A8DED0C0ABDF83010B6
:101FF000A0F86011BDF83210A0F86211B7EE000A27
:102000008DED0C0ABDF83010A0F86411BDF8321047
:10201000A0F86611B7EE000A8DED0C0ABDF830107D
:10202000A0F86811BDF83210A0F86A11B7EE000AE6
:102030008DED0C0ABDF83010A0F86C11BDF832100F
:10204000A0F86E11B7EE000A8DED0C0ABDF8301045
:10205000A0F87011BDF83210A0F87211B7EE000AA6
:102060008DED0C0ABDF83010A0F87411BDF83210D7
:10207000A0F87611B7EE000A8DED0C0ABDF830100D
:10208000A0F87811BDF83210A0F87A11B7EE000A66
:102090008DED0C0ABDF83010A0F87C11BDF832109F
:1020A000A0F87E11B7EE000A8DED0C0ABDF83010D5
:1020B000A0F88011BDF83210A0F88211B7EE000A26
:1020C0008DED0C0ABDF83010A0F88411BDF8321067
:1020D000A0F88611B7EE000A8DED0C0ABDF830109D
:1020E000A0F88811BDF83210A0F88A11B7EE000AE6
:1020F0008DED0C0ABDF8301004E000009A99193FEC
:102100001F85AB3FA0F88C11BDF83210A0F88E11DE
:10211000B7EE000A8DED0C0ABDF83010A0F8901152
:10212000BDF83210A0F892119FEDFE0A8DED0C0A59
:10213000BDF83010A0F89411BDF83210A0F8961137
:10214000B7EE000A8DED0C0ABDF83010A0F898111A
:10215000BDF83210A0F89A11B7EE000A8DED0C0A06
:10216000BDF83010A0F89C11BDF83210A0F89E11F7
:10217000B7EE000A8DED0C0ABDF83010A0F8A011E2
:10218000BDF83210A0F8A211B7EE000A8DED0C0ACE
:10219000BDF83010A0F8A411BDF83210A0F8A611B7
:1021A000B7EE000A8DED0C0ABDF83010A0F8A811AA
:1021B000BDF83210A0F8AA11B7EE000A8DED0C0A96
:1021C000BDF83010A0F8AC11BDF83210A0F8AE1177
:1021D0009FEDD40A8DED0C0ABDF83010A0F8B011B7
:1021E000BDF83210A0F8B211B7EE000A8DED0C0A5E
:1021F000BDF83010A0F8B411BDF83210A0F8B61137
:10220000B7EE000A8DED0C0ABDF83010A0F8B81139
:10221000BDF83210A0F8BA11B7EE000A8DED0C0A25
:10222000BDF83010A0F8BC11BDF83210A0F8BE11F6
:10223000B7EE000A8DED0C0ABDF83010A0F8C01101
:10224000BDF83210A0F8C211B7EE000A8DED0C0AED
:10225000BDF83010A0F8C411BDF83210A0F8C611B6
:10226000B7EE000A8DED0C0ABDF83010A0F8C811C9
:10227000BDF83210A0F8CA119FEDAA0A8DED0C0A24
:10228000BDF83010A0F8CC11BDF83210A0F8CE1176
:10229000B7EE000A8DED0C0ABDF83010A0F824123C
:1022A000BDF83210A0F82612B7EE000A8DED0C0A28
:1022B000BDF83010A0F82812BDF83210A0F82A128C
:1022C000B7EE000A8DED0C0ABDF83010A0F82C1204
:1022D000BDF83210A0F82E12B7EE000A8DED0C0AF0
:1022E000BDF83010A0F83012BDF83210A0F832124C
:1022F000B7EE000A8DED0C0ABDF83010A0F83412CC
:10230000BDF83210A0F83612B7EE000A8DED0C0AB7
:10231000BDF83010A0F83812BDF83210A0F83A120B
:1023200041F61F71A0F83C12B7EE000A8DED0C0AC1
:10233000BDF83010A0F83E12BDF83210A0F84012DF
:10234000B7EE000A8DED0C0ABDF83010A0F842126D
:10235000BDF83210A0F84412B7EE000A8DED0C0A59
:10236000BDF83010A0F84612BDF83210A0F848129F
:10237000B7EE000A8DED0C0ABDF83010A0F84A1235
:10238000BDF83210A0F84C12B7EE000A8DED0C0A21
:10239000BDF83010A0F84E12BDF83210A0F850125F
:1023A000B7EE000A8DED0C0ABDF83010A0F85212FD
:1023B000BDF83210A0F85412B7EE000A8DED0C0AE9
:1023C000BDF83010A0F85612BDF83210A0F858121F
:1023D000B7EE000A8DED0C0ABDF83010A0F85A12C5
:1023E000BDF83210A0F85C12B7EE000A8DED0C0AB1
:1023F000BDF83010A0F85E12BDF83210A0F86012DF
:10240000B7EE000A8DED0C0ABDF83010A0F862128C
:10241000BDF83210A0F86412B7EE000A8DED0C0A78
:10242000BDF83010A0F86612BDF83210A0F868129E
:1024300040F2DC71A0F8761240F6AA01A0F87812FA
:10244000A0F87A125221A0F87E12B7EE000A8DEDA4
:102450000C0ABDF83010A0F88012BDF83210A0F8B8
:102460008212B7EE000A8DED0C0ABDF83010A0F80C
:102470006A12BDF83210A0F86C12BDF83010A0F846
:102480006E12BDF83210A0F87012BDF83010A0F82E
:102490007212BDF83210A0F874120021A0F8841254
:1024A00021480C90BDF830102048A0F88612BDF8E5
:1024B0003210A0F888121E480C90BDF830101B484E
:1024C000A0F88A12BDF83210A0F88C1278200C9077
:1024D000BDF830101548A0F89212BDF83210A0F8DF
:1024E000941241F22E600C90BDF830100F48A0F805
:1024F0009612BDF83210A0F8981240F2E3700690E0
:102500000B2005901C200490DDE9040100EB012064
:1025100080B2ADF83000069880B2ADF83200BDF858
:10252000301007E09A99993F87D612003C1200209C
:1025300040E20100EA48A0F89A12BDF83210A0F873
:102540009C12BDF83010A0F89E12BDF83210A0F811
:10255000A012BDF83010A0F8A212BDF83210A0F8F9
:10256000A412BDF83010A0F8A612BDF83210A0F8E1
:10257000A812BDF83010A0F8AA12BDF83210A0F8C9
:10258000AC12BDF83010A0F8AE12BDF83210A0F8B1
:10259000B012BDF83010A0F8B212BDF83210A0F899
:1025A000B41240F2D241A0F8B612CE480C90BDF859
:1025B0003010CB48A0F8B812BDF83210A0F8BA120B
:1025C0009FEDC90A8DED0C0ABDF83010A0F8BC12C1
:1025D000BDF83210A0F8BE12FFF772F94AF6AA2130
:1025E000BF48A0F8FA150DF057FAC0A034F074FCFB
:1025F0000DB030BD10B50DF0D9FAB948B0F8FA05F4
:102600004AF6AA21884204D0FFF773F9FFF74FF981
:1026100003E00020B2490870887010BDB0487047D0
:1026200070B540F23115A5F16A0085B200240AE0C8
:1026300004F5AF70AA49091D31F81020F43821F8CB
:102640001020601C84B2AC42F2DB0120A449087067
:1026500000F0DCFD70BD0146AA48814201D2002095
:102660007047A948814201D20820F9E7A748814272
:1026700001D21020F4E7A648814201D21820EFE7EA
:10268000A448814201D22020EAE7A348814201D236
:102690002820E5E7A148814201D23020E0E7A048A8
:1026A000814201D23820DBE79E48814201D240209E
:1026B000D6E79D48814201D24820D1E79B4881421C
:1026C00001D25020CCE75820CAE770B5984D10F0E1
:1026D00035FD002010F015FD2846FFF7BCFF06462B
:1026E000022110F07FFD002409E07D48001D30F834
:1026F0001410284610F0B8FEAD1C601C84B2B4F56E
:102700003F7FF2DB012010F0FCFC10F024FD0020E4
:102710007349087070BD2DE9F0412DED028B90B02A
:102720000646884603213046FEF796FE074640F2ED
:102730008531781A8F4274D00CDC6F2F72D004DC94
:10274000012F0ED0652F0CD10CE0C92F0ED0CA2F4F
:10275000F9D168E0062804D2DFE800F0BC9A9DAF0A
:10276000B5BBB7E0FFF75AFF011DB3E0FFF756FF17
:10277000B0F8764221466FA034F0AEFBFFF74EFF73
:10278000B0F87842214670A034F0A6FBFFF746FF70
:1027900090F87E42214671A034F09EFBFFF73EFF89
:1027A000B0F88002ADF83C00FFF738FFB0F88202C5
:1027B000ADF83E009DED0F0A10EE101A084633F0FA
:1027C0008EFD41EC180B53EC182B68A034F084FB01
:1027D000FFF724FFB0F88442214668A034F07CFB68
:1027E000FFF71CFFB0F88602ADF83C00FFF716FFBC
:1027F000B0F88802ADF83E0064A00F9934F06CFB8D
:10280000FFF70CFFB0F88A02ADF83C00FFF706FFB7
:10281000B0F88C02ADF83E0061A00F9934F05CFB7B
:1028200058E029E027E0FFF7F9FEB0F88E02ADF896
:102830003C00FFF7F3FEB0F89002ADF83E005DA05B
:102840000F9934F049FB0FA833F008FE04462C2200
:10285000214604A833F012FBDDE904120698CDE905
:1028600001210090DDE9082000F26C7155A0079B62
:1028700034F032FB2EE02DE04FF43F715DA034F0D8
:102880002BFB1748B0F8FA1560A034F025FB21E0C7
:10289000FFF72FF81EE0264C002507E0228821468E
:1028A00062A034F019FBA41C681CC5B2B5F53F7FCB
:1028B000F4DB29A034F010FB0CE0FFF701F85FA077
:1028C00034F00AFB06E0FFF7ABFE60A034F004FB37
:1028D00000E000BF00BF10B0BDEC028BBDE8F0818E
:1028E0003C1200204E61BC005C8F823FCFB5CDB35F
:1028F000D2D1BBD6B8B4B3F6B3A7C9E8D6C30D0AD4
:1029000000000000004000080080000800C000082F
:10291000000001080000020800000408000006088A
:102920000000080800000A0800000C0800000E085B
:1029300000280E08CEACBBA4C3DCC2EBA3BA253082
:1029400034750D0A00000000C0B6D1C0C5E4B6D48D
:10295000C2EBA3BA253034750D0A0000C1F7C1BF20
:10296000CFD4CABEA3BA25630D0A0000B5E7D1B91A
:10297000B1B6C2CAA3BA25660D0A0000B7E7C9C836
:10298000BFAAB9D8A3BA25750D0A0000B1BEBBFA1B
:10299000BAC5C2EBC7B0B6CEA3BA25750D0A000002
:1029A000B1BEBBFABAC5C2EBBAF3B6CEA3BA2575AF
:1029B0000D0A0000B5F4B5E7D0C5CFA2A3BA2575BE
:1029C0000D0A0000B5F4B5E7CAB1BCE4A3BA257599
:1029D000C4EA25303275D4C225303275C8D52025D9
:1029E000303275CAB125303275B7D625303275C34D
:1029F000EB0D0A00466C617368BBBAB3E5C7F8B368
:102A0000A4B6C8A3BA25750D0A000000464C415370
:102A10004849535F41647253746F726546616374D1
:102A20006F72793D307825580D0A000025702020FE
:102A30002020307825580D0A00000000CAFDBEDDB8
:102A4000D2D1B1B8B7DD0D0A00000000CAFDBEDD6D
:102A5000D2D1BBD6B8B40D0A0000000010B52DEDE0
:102A6000028B0446B0EE408AA078012802D0652887
:102A70001AD116E09FEDFE0AB4EE408AF1EE10FA8C
:102A80000ED084ED038A04F10800FEF793FD94ED67
:102A90000C0ABCEEC00A10EE100AA0800120607083
:102AA00007E00120607004E00020A0706070A0804A
:102AB00000BF00BFBDEC028B10BD10B52DED068B25
:102AC0000446B0EE408A9FEDEA0AB4EE408AF1EE89
:102AD00010FA04D19FEDE60A84ED000A59E094ED66
:102AE000020AD4ED010A18EE200A84ED000A207BC8
:102AF0004009012802D002284AD124E094ED000ABE
:102B0000DFEDDC0A20EE200A10EE101A084633F042
:102B1000E6FB41EC1A0BB0EE4A0AF0EE6A0A34F01A
:102B200055FBB0EE409AF0EE609A9FEDD30B53EC5C
:102B3000102B51EC190B33F0E5FB03D29FEDD00ABB
:102B400084ED000A24E094ED000ADFEDCA0A20EECD
:102B5000200A10EE101A084633F0C1FB41EC1A0BA4
:102B6000B0EE4A0AF0EE6A0A34F030FBB0EE409A5A
:102B7000F0EE609A9FEDC30B53EC102B51EC190B48
:102B800033F0C0FB03D29FEDBE0A84ED000A00BF04
:102B900000BFBDEC068B10BD10B52DED028BBB4800
:102BA000007900287ED10520B84908710846D0ED8B
:102BB000030AB0EE600A00F6CC70FFF77EFFB34860
:102BC000D0ED380AB0EE600A00F57F60FFF775FFC0
:102BD000AF4890EDA80ADFEDAF0A30EE600ADFEDF6
:102BE000AE0A20EE200A9FEDAD1AC0EE010A9FED5D
:102BF000AC0A30EE800AB0EE408A00F60840FFF7DB
:102C00005CFFA34890EDA80ADFEDA20A30EE600A4F
:102C1000DFEDA10A20EE200A9FEDA01AC0EE010A06
:102C20009FED9F0A30EE800AB0EE408A00F62C40FD
:102C3000FFF743FF964890EDDD0ADFED960A30EE90
:102C4000600ADFED950A20EE200A9FED941AC0EE8F
:102C5000010A9FED930A30EE800AB0EE408A00F53B
:102C60004560FFF72AFF8948D0ED6D0AB0EE600A93
:102C700000F6F460FFF721FF8448D0EDA20AB0EE21
:102C8000600A00F61870FFF718FF8148D0ED3E0A81
:102C9000B0EE600A00F53360FFF70FFF7B48D0ED20
:102CA000D70A00E024E0B0EE600A00F57660FFF796
:102CB00004FF7748D0ED730AB0EE600A00F6783072
:102CC000FFF7FBFE7248D0ED090AB0EE600A00F68D
:102CD0009C30FFF7F2FE41200CF0A6FB42200CF0E6
:102CE000A3FB43200CF0A0FB0BF040FB0BF0E8FA39
:102CF000BDEC028B10BD017801F0010149B3D0EDAC
:102D0000010A70EE800AC0ED010AD0ED010A427896
:102D100000F1080101EB820191ED001A70EEC10A89
:102D2000C0ED010A4278511C417000F1080101EB2D
:102D3000820181ED000A4178322901D100214170E0
:102D4000D0ED010A9FED571AC0EE811AB0EE610A6C
:102D50001FE04278511C417000F1080101EB820133
:102D600081ED000AD0ED010A70EE800AC0ED010A83
:102D7000417832290DD100214170017841F00101E3
:102D80000170D0ED010A9FED471AC0EE811AB0EE36
:102D9000610A704700B50346B0EE402A9FED340A41
:102DA000B4EE402AF1EE10FA04D19FED310A83ED22
:102DB000000A06E0B0EE420A181DFFF79CFF83ED03
:102DC000000A00BDF8B5044602252046FEF726FBA2
:102DD000002834D0002625E02846691CCDB2205CAE
:102DE0008DF800002846691CCDB2205C8DF80100EA
:102DF0002846691CCDB2205C8DF802002846691C6B
:102E0000CDB2205C8DF80300DDED000AB0EE600A63
:102E1000352171431D4A0C3202EB8100FFF7BAFFE6
:102E2000701CC6B2122ED7DB681CC5B22846691CBE
:102E3000CDB2215C1C4880F8B0130120F8BD002001
:102E4000FCE7F0B587B00646002401222146641C49
:102E500002A84254154842782146641C02A84254F4
:102E600012483C3042782146641C02A842541FE0BC
:102E70000024744900007A44000000000000F03F84
:102E8000000000000000000000001440381800207E
:102E9000441C0020004003440080364400201645B6
:102EA0000000A0C20000484238280020F82A002074
:102EB000FE4842782146641C02A84254FB488088A0
:102EC00001909DF804202146641C02A842549DF8FC
:102ED00005202146641C4254F4483C304278214687
:102EE000641C02A84254F1483C30808801909DF84F
:102EF00004202046611CCCB202A90A549DF805208A
:102F00002046611CCCB202A90A54E84878304278C5
:102F10002046611CCCB202A90A54E44878304078BB
:102F200018B10020E14978314870214602A8FEF727
:102F30005DFA0190BDF8040002122046611CCCB27B
:102F400002A90A54BDF80400C2B22046611CCCB2EA
:102F500002A90A54FDF7B9FD074632463946D4485E
:102F6000FEF769F8FDF7B1FD074622463946D0481D
:102F7000FEF761F800250AE0FDF7A7FD074602A865
:102F8000425D3946CA48FEF756F8681CC5B2A542EC
:102F9000F2DB07B0F0BD10B5C648007A012804D0B6
:102FA000022814D0FB287AD172E0AA20FFF749FF4B
:102FB000FF20C04988716421BE484181FDF785FD2D
:102FC000002180F8F0100221BA48017267E0FDF795
:102FD0007CFD90F8F000012833D1FDF776FD00214B
:102FE00080F8F010FDF771FD00F150042046FFF766
:102FF000E9FED8B9AF48C079142806DAAD48C079DF
:10300000401CC1B2AB48C17113E000200BE01FEDC2
:10301000680A35214143A74A0C3202EB810181ED58
:10302000000A411CC8B21128F1DB02E00021A148CE
:10303000C17103219F48418101214172FB2101722D
:1030400025E09C48408910BB9A48C079142806DACC
:103050009848C079401CC1B29648C17110E0002068
:103060000BE01FED7D0A35214143924A0C3202EB01
:10307000810181ED000A411CC8B21128F1DB00BFBB
:1030800002218C48418101214172FB21017206E03D
:103090008848408910B98748417A017200BF00BF53
:1030A00010BD10B52DED028BFFF775FFFFF774FD16
:1030B0000BF069FF00F6942090ED040AB0EE408A10
:1030C0007A483C30FFF7CAFC0BF05DFF41F2185123
:1030D000084490ED040AB0EE408A7448FFF7BEFC45
:1030E000BDEC028B10BD02461078572801D100209C
:1030F00070471078532801D10020F9E7107847284D
:1031000027D102F108019FED6C0A81ED020A9FEDC3
:103110006B0A81ED030A9FED6A0A81ED040A9FEDB7
:10312000680A81ED050A9FED670A81ED0B0A9FEDA4
:10313000660A81ED090A1FEDAE0A81ED080A1FED4E
:10314000B00A81ED060A1FEDB20A81ED070A0020E0
:10315000CEE71078442827D102F10801B3EE090A1E
:1031600081ED020A9FED550A81ED030A9FED570A92
:1031700081ED040A1FEDC10A81ED050A9FED510A98
:1031800081ED0B0A1FEDC50A81ED090A1FEDC40A86
:1031900081ED080A1FEDC60A81ED060A1FEDC80A77
:1031A00081ED070A0020A3E7FF20A1E7002141707D
:1031B00081808170704738B50446FFF72FFA051DEE
:1031C00035F81400ADF80000601C35F81000ADF8BB
:1031D00002009DED000A38BD70B505460C4620463C
:1031E000FFF7E9FF85ED010A70BD70B52DED028B8B
:1031F00004460D46B0EE408A2846FFF7DCFF30EE6D
:10320000480A84ED020ABDEC028B70BD10B51FEDBB
:10321000DB0A40F225112E48FFF7E7FF1FEDDF0A1A
:1032200040F21D112A484830FFF7DFFF1FEDE30A87
:1032300040F2211126486C30FFF7D7FF1FEDE70A57
:1032400040F21F1122482430FFF7CFFF1FEDEB0A99
:1032500040F223111E482438FFF7C7FF1FEDF80A7C
:103260004FF488711A48FC38FFF7BFFF1FEDFC0AC6
:103270004FF48B711648D838FFF7B7FF9FED150A4A
:103280004FF48A711248B438FFF7AFFF9FED110A6F
:103290004FF48C710E489038FFF7A7FF9FED0D0A91
:1032A0004FF489710A486C3816E00000702B00203A
:1032B00000440040381800200080BB450000C84290
:1032C0000000FA4400E87D4700401C460000E1444D
:1032D0002828002000000000FFF787FF1FED030AE9
:1032E0004FF48D71F848FFF780FF1FED060AAE21FD
:1032F000F548D830FFF779FF1FED0A0AB021F248F0
:10330000FC30FFF772FF1FED0D0AB221EF48FFF707
:103310006CFF1FED100AB421EC482430FFF765FF65
:103320001FED140AB621E9484830FFF75EFF1FED94
:10333000170ABA21E5489030FFF757FF1FED1B0A27
:10334000B821E2486C30FFF750FF40F22711DE4809
:103350009030FFF741FF40F22911DB482430FFF79E
:103360003BFF40F22B11D9486C38FFF735FF10BDF9
:103370009FEDD70A80ED000A00210173C1811FED86
:103380002B0A80ED050A1FED2D0A80ED060A1FEDC0
:103390002F0A80ED070A01821FED320A80ED080A2C
:1033A000B7EE000A80ED010A1FED360A80ED020A31
:1033B000704700201DE0002335214143C54A02EB40
:1033C00081014B713521414302EB81010B711FEDEE
:1033D0003F0A3521414302EB810181ED020A9FED55
:1033E000BC0A3521414302EB810181ED000A411CF9
:1033F000C8B21228DFDB70470121B6480C380172D1
:103400001421C171704710B5FFF7F6FFFFF7D1FF28
:10341000AD484830FFF7ACFFAB489030FFF7A8FF4E
:10342000AA486C38FFF7A4FFA7486C30FFF7A0FF4D
:10343000A5482430FFF79CFFA348B438FFF798FF56
:10344000A1489038FFF794FF9F486C38FFF790FF32
:103450009D484838FFF78CFF9B482438FFF788FFCA
:103460009948FFF785FF99484838FFF781FF97484B
:103470002438FFF77DFF9548FFF77AFF9348243003
:10348000FFF776FF91484830FFF772FF8F486C30A6
:10349000FFF76EFF8D489030FFF76AFF8B48D830FA
:1034A000FFF766FF8948FC30FFF762FF8A48FFF7A5
:1034B0005FFF89482430FFF75BFF87484830FFF7FC
:1034C00057FF85486C30FFF753FF83489030FFF774
:1034D0004FFFFFF79BFE57217B48583080F8C01202
:1034E000532180F8FC12472180F83813442180F8DA
:1034F000741300F53070FFF759FE7848FFF756FE59
:1035000076483C30FFF752FE74487830FFF74EFEA5
:1035100072483C38FFF7E7FD7048FFF7E4FD6F485D
:103520003C30FFF7E0FD6D487830FFF7DCFD10BD63
:1035300068480C38408938B166480C384089401ECC
:1035400081B264480C38418162480C38007930B14E
:1035500060480C380079401E5E490C3908715F489C
:103560003C38008F401C81B25C483C3801873C30BD
:10357000008F401C81B2594801873C30008F401CAD
:1035800081B256483C3001873C30008F401C81B2EC
:1035900052487830018770474E480C387047F8B56C
:1035A00004460D46FFF73AF8061D94ED020AD4EDE5
:1035B000000A30EE200A84ED020A94ED020A8DED35
:1035C000000ABDF8000026F81500BDF80210681CBE
:1035D00026F81010F8BD10B54FF48B713A489038AA
:1035E000FFF7DDFF4FF48A7137486C38FFF7D7FFDC
:1035F0004FF48C7134484838FFF7D1FF4FF489718C
:1036000031482438FFF7CBFF4FF48D712E48FFF778
:10361000C6FFFFF703F80121017010BD10B540F29D
:10362000251129484830FFF7BAFF40F21D112648FE
:103630009030FFF7B4FF40F2211124486C38FFF7B7
:10364000AEFF40F21F1120486C30FFF7A8FF40F298
:1036500023111D482430FFF7A2FFFEF7DFFF0121F1
:10366000017010BD10B51848583090ED680AF3EE9F
:10367000050A30EE600A80ED680AAE2100F5D070D0
:10368000FFF78DFFB02114482438FFF788FFB221DF
:103690001148FFF784FFB4210F482430FFF77FFF64
:1036A000B6210D484830FFF77AFFBA210B4884381D
:1036B000FFF775FFB82108486C30FFF770FFFEF781
:1036C000ADFF0121017010BDE0270020002900207E
:1036D0000024744944180020202A0020342B0020A4
:1036E0000246652090709180012050700020704744
:1036F00001460020887088804870704710B50146E8
:1037000000200A4682ED020ADFEDF80AC2ED080A3F
:10371000DFEDF60AC2ED090ADFEDF40AC2ED0A0A8E
:103720004FF47A7414870123937010BD10B50146CD
:1037300000200A4682ED020A4FF47A7414870123AE
:10374000937010BD00B502461046FFF7D1FF00BDD3
:103750000121E748417070470021E54841707047FA
:1037600070B52DED028B05460E4603212846FDF768
:1037700073FE04460E2C7DD00CDC0B2C7BD004DCBD
:10378000012C10D0022C77D1A8E10C2C75D00D2C77
:10379000F9D152E1152C71D0162C70D0172C6FD0A6
:1037A000182CF0D192E1D34890EDF30A10EE101AE4
:1037B000084632F094FD41EC180B53EC182BCEA0C8
:1037C00033F08AFBCB4890EDFC0A10EE101A084645
:1037D00032F085FD41EC180B53EC182BCBA033F0E5
:1037E0007BFBC44890EDBD0A10EE101A084632F07B
:1037F00076FD41EC180B53EC182BC8A033F06CFB92
:10380000BC4890EDC60A10EE101A084632F067FD6B
:1038100041EC180B53EC182BC4A033F05DFBB548FA
:1038200090EDCF0A10EE101A084632F058FD41EC28
:10383000180B53EC182BC1A033F04EFBAD4890EDA4
:10384000D80A10EE101A084632F049FD41EC180B68
:1038500053EC182BBDA033F03FFBA64890EDE10AD6
:1038600010EE101A084632F03AFD41EC180B53ECFA
:10387000182B06E0F8E0ADE033E1C2E010E116E11C
:103880001CE1B6A033F028FB9A4890EDEA0A10EE4E
:10389000101A084632F023FD41EC180B53EC182B9C
:1038A000B2A033F019FBB54890ED050A10EE101ADE
:1038B000084632F014FD41EC180B53EC182BB0A065
:1038C00033F00AFBAD4890ED0E0A10EE101A0846D0
:1038D00032F005FD41EC180B53EC182BABA033F084
:1038E000FBFAA64890ED170A10EE101A084632F0BF
:1038F000F6FC41EC180B53EC182BA8A033F0ECFAB3
:103900009E4890ED200A10EE101A084632F0E7FCAF
:1039100041EC180B53EC182BA4A033F0DDFA9748B8
:1039200090ED290A10EE101A084632F0D8FC41EC4E
:10393000180B53EC182BA0A033F0CEFA8F4890ED63
:10394000320A10EE101A084632F0C9FC41EC180B8E
:1039500053EC182B9CA033F0BFFA884890ED3B0A3B
:1039600010EE101A084632F0BAFC41EC180B53EC7A
:10397000182B98A033F0B0FA804890ED440A10EE6E
:10398000101A084632F0ABFC41EC180B53EC182B24
:1039900094A033F0A1FA794890ED4D0A10EE101A78
:1039A000084632F09CFC41EC180B53EC182B90A00D
:1039B00033F092FA714890ED560A10EE101A08464C
:1039C00032F08DFC41EC180B53EC182B8CA033F02B
:1039D00083FA87E00120464978314870084680889C
:1039E0000A30888008468088B0F5803F02DB4FF6B9
:1039F000FF7088803E487830818885A033F06CFA6B
:103A000070E001203A4978314870084680880A28D9
:103A100003DD084680880A388880354878308088F9
:103A20000A2803DC00203249783188803048783019
:103A300081887CA033F050FA54E001202C49B43145
:103A40004870084680880A30888008468088B0F52B
:103A5000803F02DB4FF6FF7088802548B4308188B4
:103A600075A033F039FA3DE001202149B4314870A6
:103A7000084680880A2803DD084680880A3888803E
:103A80001B48B43080880A2803DC00201849B43170
:103A900088801748B430818867A033F01DFA21E090
:103AA00001211348417069A033F016FA1AE0002191
:103AB0000F48417068A033F00FFA13E001200C4961
:103AC0003C31487067A033F007FA0BE0002008494A
:103AD0003C31487066A033F0FFF903E0FFF77BFD4F
:103AE00000E000BF00BFBDEC028B70BD0000000015
:103AF000F82A002038240020443138423230BCC635
:103B0000CEC2A3BA25660D0A000000003538303554
:103B1000CEC2B6C8A3BA25660D0A0000B4F3C6F833
:103B2000D1B9A3BA25660D0A0000000041C2B7B69C
:103B3000AFD1B9A3BA25660D0A00000041C2B7BED5
:103B4000B2D1B9A3BA25660D0A000000B3BEB6AF64
:103B5000D1B9A3BA25660D0A00000000B3BEBEB2FB
:103B6000D1B9A3BA25660D0A00000000C6F8B6AFA9
:103B7000D1B9A3BA25660D0A00000000382800203C
:103B8000D1CCCEC2A3BA25660D0A0000B8C9C7F2CF
:103B9000CEC2B6C8A3BA25660D0A0000CAAAC7F2EB
:103BA000CEC2B6C8A3BA25660D0A00004F32204126
:103BB00044A3BA25660D0A00534F32204144A3BAEC
:103BC00025660D0A000000004E4F204144A3BA258F
:103BD000660D0A004E4F32204144A3BA25660D0AF5
:103BE00000000000434F204144A3BA25660D0A009F
:103BF000483253204144A3BA25660D0A0000000054
:103C0000434F32204144A3BA25660D0A000000004C
:103C10000AC6F8B1C3504535D5BCBFD5B1C82B20B5
:103C2000256420000AC6F8B1C3504535D5BCBFD5C0
:103C3000B1C82D20256420000AB3BEB1C350413560
:103C4000D5BCBFD5B1C82B25642000000AB4F2BF93
:103C5000AACBAEB1C30000000AB9D8B1D5CBAEB182
:103C6000C30000000AB4F2BFAAB5E7B4C5B7A70005
:103C70000AB9D8B1D5B5E7B4C5B7A700F64890EDF5
:103C80006C0ADFEDF60AB4EEE00AF1EE10FA03DD9D
:103C90000120F14948700CE0EF4890ED6C0ADFED2F
:103CA000F00AB4EEE00AF1EE10FA02D20020EA497E
:103CB0004870E94890ED350ADFEDE80AB4EEE00A15
:103CC000F1EE10FA03DD0120E34908700CE0E24850
:103CD00090ED350ADFEDE20AB4EEE00AF1EE10FAFB
:103CE00002D20020DC490870DB4890ED350ADFED98
:103CF000DB0AB4EEE00AF1EE10FA03D8002180F8F6
:103D0000DC1024E0D44890ED350AF3EE090AB4EE55
:103D1000E00AF1EE10FA03DB642180F8DC1016E013
:103D2000CD4890ED350ADFEDCD0A30EE600ADFEDCB
:103D3000CD0A80EE201A9FEDCC0A21EE000ABCEEDF
:103D4000C00A10EE100AC1B2C34880F8DC107047F8
:103D500070B50221C5480FF02BFF002854D0BE4893
:103D60008078012851D1C1480FF03DFE0111BA48B9
:103D700090F8CC2090F8CC00401CC3B2B64880F834
:103D8000CC30001D20F81210001F90F8CC006428E1
:103D900003DB0021B04880F8CC100024002506E0A9
:103DA000AD48001D30F815000444681CC5B2642DF0
:103DB000F6DB00EE104AB8EE400ADFEDAB0A80EE0B
:103DC000201AA54880ED341A90ED340ADFEDA80AD8
:103DD00020EE200A80ED340A90ED340AD0ED360A48
:103DE00020EE200AF2EE060A20EE200A80ED350AC7
:103DF000072301220A219D480FF05DFD9B480FF02B
:103E0000B6FD022094498870A8E093488078022883
:103E100051D196480FF0E7FD01118F4890F8A82185
:103E200090F8A801401CC3B28B4880F8A831E0305C
:103E300020F81210E03890F8A801642803DB002174
:103E4000854880F8A8110024002506E08248E0306B
:103E500030F815000444681CC5B2642DF6DB00EE92
:103E6000104AB8EE400ADFED800A80EE201A7A4848
:103E700080ED6B1A90ED6B0ADFED7D0A20EE200AD3
:103E800080ED6B0A90ED6B0AF7EE000A20EE200A37
:103E9000F2EE060A20EE200A80ED6C0A07230122CA
:103EA0000D2172480FF007FD70480FF060FD0320F0
:103EB0006949887052E06848807803284ED16B4881
:103EC0000FF091FD0111644890F8842290F884026B
:103ED000401CC3B2604880F8843200F5DE7020F8E0
:103EE00012105D4890F88402642803DB00215A48D0
:103EF00080F884120024002505E05E4830F81500A3
:103F00000444681CC5B2642DF7DB00EE104AB8EE1D
:103F1000400ADFED550A80EE201A4F4880EDA21AC4
:103F200090EDA20ADFED520A20EE200A80EDA20AEF
:103F3000D0EDA20A9FED501AB2EE090A01EE600A16
:103F400080EDA30A072301220B2148480FF0B3FCA0
:103F500046480FF00CFD01203F49887070BD10B538
:103F6000FFF7F6FEFFF78AFE10BD08B5FEF756FB19
:103F7000B0F86602ADF80000FEF750FBB0F868023A
:103F8000ADF802009DED000A334880ED360A08BD09
:103F900010B500203049087048709FED380A084677
:103FA00080ED360A9FED350A80ED350A9FED330A24
:103FB00080ED340A9FED310A80ED360A002180F849
:103FC000CC10002406E000212348001D20F8141026
:103FD000601CC4B2642CF6DBFFF7C7FF9FED270A15
:103FE0001D4880ED6D0A9FED250A80ED6C0A9FED5E
:103FF000230A80ED6B0AB7EE000A80ED6D0A0021FE
:1040000080F8A811002406E000211A48DC3820F8C6
:104010001410601CC4B2642CF6DB9FED180A0E4825
:1040200080EDA40A9FED150A80EDA30A9FED130A07
:1040300080EDA20AB7EE000A80EDA40A002180F804
:104040008412002405E000210A4820F81410601CA6
:10405000C4B2642CF7DB10BDEC2B002066668A41ED
:10406000CDCC88416866F6400000C842002001407F
:104070000000403AA82D0020EC51A84000000000AC
:1040800000B58DB0012104200EF086FC012108024C
:104090000EF0DCFC01200B9003208DF83000002096
:1040A0008DF833000BA95E480DF086FB02200B90C3
:1040B00003208DF8300000208DF833000BA95848FC
:1040C0000DF07AFB08200B9003208DF830000020C3
:1040D0008DF833000BA952480DF06EFB0121080248
:1040E0000EF009FD00214FF480700EF004FD002059
:1040F00007900A9009904FF48030089007A80FF0BD
:1041000083FB002001908DF808008DF809000390D2
:104110004FF40060059001208DF8180001A9414876
:104120000FF043FB01213F480FF085FB07230122DD
:104130000B213C480FF0BFFB3A480FF018FC012060
:10414000394988700DB000BD10B5FFF799FFFFF732
:104150001FFF10BD70473448704770B52DED028BBE
:1041600082B005460E4603212846FDF775F9044640
:10417000652C02D0C92C49D12DE02B4890ED340A92
:1041800010EE101A084632F0AAF841EC180B53EC66
:10419000182B26A032F0A0FE234890ED350A10EE31
:1041A000101A084632F09BF841EC180B53EC182B10
:1041B00022A032F091FE1C4890ED360A10EE101A43
:1041C000084632F08CF841EC180B53EC182B1FA06A
:1041D00032F082FE1FE0FEF721FAB0F88002ADF85F
:1041E0000400FEF71BFAB0F88202ADF806009DED60
:1041F000010A10EE101A084632F071F841EC180B63
:1042000053EC182B15A032F067FE04E0214619A0EC
:1042100032F062FE00BF00BF02B0BDEC028B70BD89
:104220000008024000200140EC2B0020B2C9BCAFC6
:10423000B5E7D1B9A3BA25660D0A0000BCC6CBE329
:10424000B5E7D1B9A3BA25660D0A0000B5E7D1B923
:10425000B1B6C2CAA3BA25660D0A0000B5B1C7B08F
:10426000C9E8D6C3B5E7D1B9B1B6C2CAA3BA256603
:104270000D0A0000626174746572792E63BDD3CA41
:10428000D5B5BDCEDED0A7B5F7CAD4D6B8C1EE2518
:1042900075210D0A00000000704770B5FB4840888A
:1042A000401EFA4948800846408800287DD12820D1
:1042B000488008468079062878D2DFE800F0770346
:1042C0005091FEFD4FF48041F1480DF0F3FA4FF4A8
:1042D0000041EF480DF0EEFA0221EE480DF0EAFA47
:1042E0000121EC480DF0E6FA0020E8490870487119
:1042F00048714FF40051E6480DF0C0FA05464FF4FE
:104300000071E5480DF0BAFA45EA40054FF4006146
:10431000E1480DF0B3FA45EA80054FF40051DE485C
:104320000DF0ACFA45EAC0052021D9480DF0A6FAF7
:1043300045EA00150221D9480DF0A0FA45EA4015DA
:104340008021D5480DF09AFA45EA8010C0B240F0BD
:104350008004FF2C02D00220CC498871BEE14FF4CA
:104360000051CB480DF08AFA05464FF40071CA4857
:104370000DF084FA45EA40054FF40061C6480DF09F
:104380007DFA45EA80054FF40051C3480DF076FAF6
:1043900045EAC0052021BE480DF070FA45EA001537
:1043A0000221BE480DF06AFA01E099E192E145EA86
:1043B00040158021B8480DF061FA45EA8010C0B27E
:1043C00040F08004FF2C03D10120B049887106E041
:1043D000AE4804710320AD498871012048807DE119
:1043E0004FF48041AA480DF063FA4FF40041A84809
:1043F0000DF060FA0221A7480DF05CFA0121A548F2
:104400000DF058FA4FF40051A1480DF037FA054667
:104410004FF40071A0480DF031FA45EA40054FF421
:1044200000619D480DF02AFA45EA80054FF40051DD
:1044300099480DF023FA45EAC005202194480DF073
:104440001DFA45EA0015022194480DF017FA45EAD5
:104450004015802190480DF011FA45EA8010C0B255
:1044600040F08004FF2C05D10120884948710420C8
:10447000887133E14FF4804185480DF01BFA4FF409
:10448000004183480DF014FA022182480DF012FA1F
:10449000012180480DF00EFA4FF400517C480DF0D8
:1044A000EDF905464FF400717B480DF0E7F945EA58
:1044B00040054FF4006101E0D3E0BCE076480DF028
:1044C000DDF945EA80054FF4005173480DF0D6F947
:1044D00045EAC00520216E480DF0D0F945EA0015E7
:1044E00002216E480DF0CAF945EA401580216A485C
:1044F0000DF0C4F945EA8010C0B240F08004FF2CF2
:1045000005D102206149487104208871E6E04FF42A
:1045100080415F480DF0CEF94FF400415C480DF04A
:10452000C9F902215B480DF0C3F9012159480DF08A
:10453000C1F94FF4005156480DF0A0F905464FF46B
:10454000007155480DF09AF945EA40054FF40061B5
:1045500051480DF093F945EA80054FF400514E485B
:104560000DF08CF945EAC005202149480DF086F987
:1045700045EA0015022149480DF080F945EA401549
:10458000802145480DF07AF945EA8010C0B240F02C
:104590008004FF2C05D103203C4948710420887118
:1045A0009CE04FF480413A480DF084F94FF400410B
:1045B00037480DF07FF9022136480DF07BF90121D3
:1045C00034480DF075F94FF4005131480DF056F9AB
:1045D00005464FF4007130480DF050F945EA4005AA
:1045E0004FF400612C480DF049F945EA80054FF47D
:1045F000005129480DF042F945EAC0052021244820
:104600000DF03CF945EA0015022124480DF036F979
:1046100045EA4015802120480DF030F945EA801028
:10462000C0B240F08004FF2C04D104201749487127
:10463000887153E052E0154A1179002005E001F03D
:10464000010202B903E04910401C0728F7DB00BF54
:104650000E4A527900EB02120C4B1A7005229A7125
:1046600000BF0A48027901780DA032F035FC0748F6
:10467000017813A032F030FC012004498871C82071
:104680004880642009F0CFF928E0000002000020F3
:1046900000080240000002400010024000040240F6
:1046A000B0B4BCFCD6B558446174613D3058253275
:1046B000782C2059446174613D30582532780000CF
:1046C000B0B4BCFCD6B54B6579446174613D3058DB
:1046D0002532780001203F49887100BF00BF00BF2C
:1046E00070BD00203B49087014204880012088716B
:1046F00000204871087170471CB5012117200EF089
:104700004BF9022000908DF8050000208DF8040080
:1047100001208DF8070000208DF8060069462E481C
:104720000DF04AF842F22000009069462B480DF047
:1047300043F84FF42A500090694629480DF03CF8A0
:10474000802127480DF0B4F84FF4007124480DF093
:10475000AFF801208DF8040003200090694621483D
:104760000DF02AF84FF44040009069461B480DF0C8
:1047700023F81CBD10B5FFF7BFFFFFF7B2FF10BD58
:10478000144870477047704770472DE9F041044660
:104790000F4603212046FCF75FFE0546652D02D03B
:1047A000662D13D111E00321201DFCF755FEC6B282
:1047B00017F0F3F980F8906017F0EFF990F8906037
:1047C000314609A032F088FB00E000BF00BFBDE821
:1047D000F0810000020000200004024000080240B6
:1047E0000010024000000240C9E8D6C3B5C4D0C2E0
:1047F0004B657944617461D6B5CEAAA3BA25750D0F
:104800000A000000F1487047F048808820B1EF4866
:104810008088401EED498880704770B5B6B0064666
:10482000002415E0002508E0202104EB8402E8487C
:1048300000EB42004155681CC5B2092DF4DB2C2168
:1048400004EB8402E24800EB42004172601CC4B2F7
:104850000A2CE7DB0D21DD4880F894110A2180F84D
:10486000951132466946062004F05CFD00208DF863
:104870000600D8A103A831F052FB694603A831F025
:1048800021FB092203A9D24831F028FBD2A00088DD
:10489000ADF80C000422D149684631F01FFB00201E
:1048A0008DF80400694603A831F00CFB0222CB49C5
:1048B000491D684631F012FB00208DF80200694660
:1048C00003A831F0FFFA0222C4490831684631F0EA
:1048D00005FB00208DF80200694603A831F0F2FACA
:1048E000092203A9BA480A3031F0F8FAB9A103A89D
:1048F00031F015FB0222B9490B31684631F0EEFA6E
:1049000000208DF80200694603A831F0DBFA02228C
:10491000B2490E31684631F0E1FA00208DF802000C
:10492000694603A831F0CEFA0222AC49113168463B
:1049300031F0D4FA00208DF80200694603A831F066
:10494000C1FA092203A9A248143031F0C7FA36B0DF
:1049500070BDFEB504460D4616462146284631F088
:10496000DEFA32466946062004F0DCFC00208DF8B1
:1049700006009BA1284631F0A5FA6946284631F089
:10498000A1FA98A1284631F09DFA2946284631F02F
:10499000C6FAFEBD70472DE9F043BFB00746884612
:1049A00015461E46012239469048006810F067FF00
:1049B0008146B9F1000F2FD18DA032F08DFA294632
:1049C0008A48006811F05AFA8146B9F1000F17D1F0
:1049D0008648FA210268684612F010FC8348006895
:1049E0008068401BB04206D132466946404631F0ED
:1049F00075FA002408E083A032F06EFA032403E085
:104A000085A032F069FA02247848006811F024FA8F
:104A100020463FB0BDE8F0837448006811F01CFAEE
:104A200082A032F059FA01242046F2E72DE9F04144
:104A300005460C46601E642100FB01F764233A46DC
:104A400063492846FFF7A7FF06463046BDE8F081D8
:104A50002DE9F04705460E4617469946132229468A
:104A60006248006810F00BFF8046B8F1000F2FD1AC
:104A70005FA032F031FA39465C48006811F0FEF967
:104A80008046B8F1000F10D158480168304612F046
:104A900020FC401C20B16BA032F01EFA002408E07C
:104AA0006FA032F019FA032403E05BA032F014FA8D
:104AB00002244E48006811F0CFF90A20434988804B
:104AC00000BF424880880028FBD12046BDE8F0871F
:104AD00056A032F001FA01244448006811F0BCF9F4
:104AE0002046F3E7F0B59BB005460C46601E6421F6
:104AF00000FB01F76422364901A831F0EFF90020EC
:104B00008DF8680064233A4601A92846FFF7A0FF04
:104B1000064630461BB0F0BD10B59AB0554901A805
:104B200031F0FDF901A811F0EEFD0446002C30D162
:104B300051A032F0D1F94F4811F0D7FC044614B916
:104B400051A032F0C9F9584811F0CFFC044614B90D
:104B500056A032F0C1F917225E492448006810F0CF
:104B60008EFE04468CB95CA032F0B6F900211F48D5
:104B7000006811F083F9044614B95EA032F0ACF974
:104B80001A48006811F068F906E062A032F0A4F952
:104B900002E067A032F0A0F91AB010BD10B59AB0CB
:104BA000674901A831F0BBF901A811F0ACFD04463A
:104BB000002C09D130A032F08FF9614811F095FC3A
:104BC000044604B9BEE0C0E0E5E00000842E002009
:104BD000B62F002020202000200000007E3F002073
:104BE0002F0000002E747874000000006400002084
:104BF0000D0A206F70656E2066696C65204F4B0D45
:104C00000A0000007265616420646174612065724D
:104C1000726F72210D0A0000665F6C7365656B2010
:104C20006572726F7221320D0A0000000D0A206F4A
:104C300070656E2066696C65204552524F520D0AB0
:104C40000000000057524954452046494C45207306
:104C500075636365737366756C210D0A000000004F
:104C600057524954452046494C45205245454F52DC
:104C7000210D0A001E8E0708C9BEB3FDCEC4BCFEBE
:104C8000BCD0B3C9B9A60000B4B4BDA8CEC4BCFEA4
:104C9000BCD0A3BA594C42333333302F576F726BA9
:104CA00020B3C9B9A60D0A002E8E0708B4B4BDA85A
:104CB000CEC4BCFEBCD0A3BA594C42333333302FE0
:104CC000576F726B2F576F726B303020B3C9B9A614
:104CD0000D0A0000458E0708B4B4BDA8576F726B6B
:104CE0002D6C696E6B2E747874CEC4BCFEB3C9B9DA
:104CF000A60D0A00B6A8CEBB576F726B2D6C696EFD
:104D00006B2E747874CEC4BCFEBFAACDB7B3C9B93C
:104D1000A60D0A00B4B4BDA8576F726B2D6C696EF6
:104D20006B2E747874CEC4BCFECAA7B0DC0D0A002A
:104D3000C9BEB3FDCEC4BCFEBCD0B4EDCEF3000002
:104D4000E28D0708DDA032F0C7F8E44811F0CDFB92
:104D5000044614B9E2A032F0BFF81722EA49EB4842
:104D6000006810F08CFD04468CB9E9A032F0B4F86C
:104D70000021E648006811F081F8044614B9EBA060
:104D800032F0AAF8E148006811F066F807E0EFA0F9
:104D900032F0A2F803E0AFF2680032F09DF81AB0EA
:104DA00010BD10B59AB0F04901A831F0B8F801A8CB
:104DB00011F0A9FC0446002C31D1AFF2441032F0BE
:104DC0008BF8E94811F091FB044614B9E7A032F0E2
:104DD00083F8EE4811F089FB044614B9ECA032F0D8
:104DE0007BF81722F449C948006810F048FD0446D2
:104DF0008CB9F2A032F070F80021C448006811F0BC
:104E00003DF8044614B9F4A032F066F8BF480068D3
:104E100011F022F807E0F8A032F05EF803E0AFF2FC
:104E2000F00032F059F81AB010BD70B504462046B3
:104E300011F0FAFA0546284670BD30B5ADF5137D80
:104E400004464FF4827141A831F031F84FF4827179
:104E5000684631F02CF8FF208990CDF820D2214609
:104E60008AA811F052F9054638E00DF2112031F010
:104E700041F800B939E0E7A10DF2112031F041F815
:104E800000B92BE0E4A10DF2112031F03AF800B99D
:104E900024E04FF4827141A831F009F88898007835
:104EA00008B1889801E00DF2112003462246DBA1EB
:104EB00041A832F021F89DF8100200F0100020B156
:104EC00041A8FFF7BAFF054607E041A811F0ACFA88
:104ED000054641A9D3A031F0FFFF00BF2DB982A93B
:104EE0008AA811F061F90028BFD000BF1DB9204683
:104EF00011F09AFA054628460DF5137D30BD10B520
:104F00009AB0CA4901A831F00AF801A811F0FBFBD8
:104F10000446C7A031F0E0FF1CB9C9A031F0DCFFA6
:104F200002E0CCA031F0D8FF20461AB010BD10B579
:104F3000BE49CD4811F0E9F830B9CB4811F029F954
:104F4000CAA031F0C9FFFBE1B84811F0CEFA04461F
:104F500014B9C9A031F0C0FF834811F0C6FA044665
:104F600014B982A031F0B8FFC94811F0BEFA044666
:104F700014B952A031F0B0FFC64811F0B6FA044699
:104F80001CB9AFF2FC2031F0A7FFC34811F0ADFA15
:104F9000044614B9C1A031F09FFF7C4811F0A5FA76
:104FA000044614B97AA031F097FF4C4811F09DFAED
:104FB000044614B94AA031F08FFFC04811F095FAA9
:104FC00004461CB9AFF21C3031F086FFBC4811F02A
:104FD0008CFA044614B9BBA031F07EFF1722764943
:104FE0004A48006810F04BFC04468CB973A031F0BD
:104FF00073FF00214548006810F040FF044614B9D3
:1050000075A031F069FF4148006810F025FF02E00B
:1050100079A031F061FF17223B493C48006810F04D
:105020002EFC04468CB9B1A031F056FF0021374860
:10503000006810F023FF044614B93CA031F04CFF87
:105040003248006810F008FF02E040A031F044FF51
:105050001722AC492D48006810F011FC04469CB999
:10506000AFF28C3031F038FF00212848006810F092
:1050700005FF04461CB9AFF2843031F02DFF234800
:10508000006810F0E9FE03E0AFF2783031F024FF61
:1050900017229D491D48006810F0F1FB044654B9E1
:1050A0009AA031F019FF00211848006810F0E6FEC0
:1050B00004460CB938E13FE139E10000B4B4BDA8C1
:1050C000CEC4BCFEBCD0A3BA594C42333333302FCC
:1050D00047617320B3C9B9A60D0A0000F18D070816
:1050E000B4B4BDA8CEC4BCFEBCD0A3BA594C4233A4
:1050F0003333302F4761732F476173303020B3C98A
:10510000B9A60D0A00000000068E07086400002002
:10511000B4B4BDA84761732D6C696E6B2E7478743E
:10512000CEC4BCFEB3C9B9A60D0A0000B6A8CEBB5A
:105130004761732D6C696E6B2E747874CEC4BCFE9F
:10514000BFAACDB7B3C9B9A60D0A0000B4B4BDA8B3
:105150004761732D6C696E6B2E747874CEC4BCFE7F
:10516000CAA7B0DC0D0A0000A28D0708B4B4BDA820
:10517000CEC4BCFEBCD0A3BA594C42333333302F1B
:105180004475737420B3C9B9A60D0A00B28D07081F
:10519000B4B4BDA8CEC4BCFEBCD0A3BA594C4233F3
:1051A0003333302F447573742F447573743030204B
:1051B000B3C9B9A60D0A0000C98D0708B4B4BDA8CB
:1051C000447573742D6C696E6B2E747874CEC4BC88
:1051D000FEB3C9B9A60D0A00B6A8CEBB4475737458
:1051E0002D6C696E6B2E747874CEC4BCFEBFAACDD4
:1051F000B7B3C9B9A60D0A00B4B4BDA84475737499
:105200002D6C696E6B2E747874CEC4BCFECAA7B0C8
:10521000DC0D0A002E0000002E2E000025732F2525
:10522000730000000D0A257300000000988D070828
:105230000D0AC9BEB3FDB8F9C4BFC2BC000000006E
:105240000D0AC9BEB3FDB8F9C4BFC2BCB3C9B9A683
:10525000000000000D0AC9BEB3FDB8F9C4BFC2BC4E
:10526000CAA7B0DC0000000078F50020C4BFC2BCB3
:10527000B4E6D4DA0D0A0000B4B4BDA8B8F9C4BFCE
:10528000C2BC594C4233333330B3C9B9A60D0A00FE
:10529000E28D07081E8E07085E8E0708B4B4BDA80D
:1052A000CEC4BCFEBCD0A3BA594C42333333302FEA
:1052B000466C756520B3C9B9A60D0A002E8E070885
:1052C0006E8E0708B4B4BDA8CEC4BCFEBCD0A3BAD1
:1052D000594C42333333302F576F726B2F466C75F6
:1052E00065303020B3C9B9A60D0A0000B4B4BDA81A
:1052F0004761732D6C696E6B2E747874B3C9B9A64F
:105300000D0A0000458E0708858E0708B4B4BDA8B5
:10531000466C75652D6C696E6B2E747874CEC4BC4A
:10532000FEB3C9B9A60D0A00F0A031F0D5FDF748CB
:10533000006810F091FD03E0AFF2286031F0CCFD81
:1053400010BD10B500200EF088FDF1A031F0C4FDB5
:10535000002408E001F0CCFD00B106E00A2008F0CE
:1053600075FC601CC4B20A2CF4DD00BF4FF4FA7067
:1053700008F06CFC12F07EF9EA4901220868EAA103
:1053800010F052FAE74901228868E8A110F04CFABF
:1053900001F05EFC007808B1FFF7C9FD10BD704751
:1053A0002DE9F04706460D46174601223146D748FB
:1053B000006810F064FA8046B8F1000F2AD1AFF20D
:1053C000D07031F089FD0021D048006810F056FD02
:1053D0008046B8F1000F13D1D5A031F07DFDCB4848
:1053E0000068C06810B90020286007E0C74800685E
:1053F000D0F80C90B9FBF7F9C5F80090002404E050
:10540000AFF2EC7031F068FD0224C048006810F083
:1054100023FD04E0AFF2EC7031F05EFD0124204684
:10542000BDE8F08710B56422C749C848FFF7B8FF48
:105430000446204610BD10B56422C3490C31C4484F
:10544000FFF7AEFF0446204610BD10B56422BE49EA
:105450000831C048FFF7A4FF0446204610BD10B530
:105460006422B949091DBC48FFF79AFF044620464B
:1054700010BD2DE9F041B4B00646324601A9B74847
:10548000FFF767FA012201A9A048006810F0F7F9B8
:105490000746002F30D1AFF6A80031F01DFD4FF4C4
:1054A000527529469948006810F0E8FC0746CFB9C4
:1054B0009FA031F011FD95480068C068A8420BD349
:1054C00092480068C068A0EB0508C820B8FBF0F857
:1054D000A348C0F8B88303E00021A148C0F8B8137E
:1054E000002404E0AFF6D00031F0F6FC0224874837
:1054F000006810F0B1FC04E0AFF6D00031F0ECFC35
:105500000124204634B0BDE8F081F0B5CDB00746A7
:105510003A4640A99348FFF71CFA012240A97B486C
:10552000006810F0ACF90446002C77D1AFF64010BB
:1055300031F0D2FC00217548006810F09FFC044651
:105540000026002C60D188A031F0C6FC6F48FA21FB
:10555000026801A811F052FE6C4800688068801B48
:105560001E2808D11E2201A9844830F0B7FC6748E4
:105570000068866803E082A031F0AEFC0124D4B953
:105580006248FA21026801A811F038FE5F480068FD
:105590008068801B3C280AD13C2201A977481E3034
:1055A00030F09CFC594800688668002403E079A02C
:1055B00031F092FC0124002C2AD1002521E053482F
:1055C000FA21026801A811F019FE504800688068AD
:1055D000801B1E280ED1C5EB051268495A3101EB1C
:1055E00042001E2201A930F079FC48480068866814
:1055F000002404E06CA031F06FFC012403E0681C7F
:1056000085B20E2DDBDB03E06CA031F065FC0124DC
:105610003E48006810F020FC04E0FFE76CA031F089
:105620005BFC012420464DB0F0BD002204E02023A5
:105630000370401C531CDAB28A42F8DB704770B525
:1056400005461E216748FFF7F0FF0D21664880F8E8
:10565000CA170A2180F8CB1713224149FA31614851
:1056600030F03CFC3C215F481E30FFF7DEFF0D218F
:105670005D4880F806180A2180F8071809225BA106
:1056800000F2CC7030F02AFC31225B49A1F63810D0
:1056900030F024FC00240EE0C4EB4412574BD11828
:1056A000C4EB04134F4A5A3202EB43001E2230F07F
:1056B00015FC601CC4B20E2CEEDB002413E004EBDE
:1056C000840202EBC4034C4A33329918C4EB04132E
:1056D000A2F6381202EB430202F109000D2230F06B
:1056E000FDFB601CC4B20E2CE9DB70BDB6A8CEBBBE
:1056F000466C75652D6C696E6B2E747874CEC4BC67
:10570000FEBFAACDB7B3C9B9A60D0A006400002038
:105710007364207465737420737461722E2E2E2E40
:105720000D0A00002CF50020303A0000323A00004B
:10573000665F6C7365656B20737563636573736611
:10574000756C210D0A0000002C420020068E07080F
:10575000858E0708C98D0708458E0708F18D070853
:10576000843E00202E8E07080D0A20B6A8CEBBCEA0
:10577000C4BCFECDB7D5FDC8B70D0A007E300020F1
:105780000D0A20B6C1BCC7C2BCB4EDCEF3310D0AC0
:10579000000000000D0A20B6C1BCC7C2BCB4EDCEEB
:1057A000F3320D0A000000000D0A20B6C1BCC7C2CA
:1057B000BCB4EDCEF3330D0A000000000D0A20B694
:1057C000A8CEBBCEC4BCFECDB7B4EDCEF30D0A005F
:1057D0000D0A206F70656E2066696C6520657272B7
:1057E0000D0A000032360020842E0020B2C9D1F903
:1057F000B5D8D6B73A000000913F00209E8E07082A
:10580000F0B5B3B007460E463846FFF718FF3046EE
:10581000FFF703F8F649684630F081FB31466846E9
:10582000FFF760F932466946F248FFF792F8132213
:105830006946F148006810F022F80446002C69D14E
:105840000021ED48006810F019FB0446CCB91E2277
:10585000EA49684630F042FB00208DF81E00E64819
:105860000168684611F035FD401C28B1AFF62C40A8
:1058700031F032FB002404E0AFF61C4031F02CFB89
:105880000124D4B93C22DD491E31684630F026FBA4
:1058900000208DF83C00D8480168684611F019FDD9
:1058A000401C28B1AFF6644031F016FB002404E040
:1058B000AFF6544031F010FB0124002C26D1002516
:1058C00021E0C5EB0512CD485A3000EB42011E2203
:1058D000684630F003FB00208DF81E00C6480168C2
:1058E000684611F0F6FC401C28B1AFF6A84031F034
:1058F000F3FA002405E0AFF6984031F0EDFA012408
:1059000003E0681CC5B20E2DDBDB00BFBA4800689F
:1059100010F0A2FA204633B0F0BDF0B5CDB0074686
:105920003A4640A9B648FFF714F8012240A9B24808
:1059300000680FF0A4FF0446002C7CD1AFF6505055
:1059400031F0CAFA0021AC48006810F097FA04461A
:105950000026002C65D1AFF2F01031F0BDFAA64858
:10596000FA21026801A811F049FCA3480068806888
:10597000801B1E2808D11E2201A9A24830F0AEFAD1
:105980009D480068866804E0AFF20C2031F0A4FA6C
:105990000124DCB99848FA21026801A811F02EFC14
:1059A000954800688068801B3C280AD13C2201A9E8
:1059B00094481E3030F092FA8F48006886680024C0
:1059C00004E0AFF2302031F087FA0124002C2DD111
:1059D000002522E08848FA21026801A811F00EFC97
:1059E000854800688068801B1E280ED1C5EB051213
:1059F00084495A3101EB42001E2201A930F06EFAAF
:105A00007D4800688668002405E0AFF2642031F02C
:105A100063FA012403E0681C85B2272DDADB05E078
:105A200009E0AFF2682031F057FA012472480068AB
:105A300010F012FA04E0AFF2682031F04DFA0124C0
:105A400020464DB0F0BD70B505461E216B48FFF7EE
:105A5000ECFD0D216C4880F8CA170A2180F8CB179D
:105A600013226A49654830F039FA3C2163481E30F8
:105A7000FFF7DBFD0922AFF28C2160481E3030F0C9
:105A80002DFA332261491331A1F6381030F026FA8D
:105A90000D215D4880F806180A2180F807180024B7
:105AA0000EE0C4EB44125A4BD118C4EB0413534A12
:105AB0005A3202EB43001E2230F010FA601CC4B2CE
:105AC000272CEEDB002413E004EB840202EBC4037A
:105AD0004E4A46329918C4EB0413A2F6381202EB70
